{
  "contractName": "factorypaardarshak",
  "abi": [
    {
      "constant": false,
      "inputs": [
        {
          "internalType": "string",
          "name": "_fname",
          "type": "string"
        },
        {
          "internalType": "string",
          "name": "_fdescription",
          "type": "string"
        }
      ],
      "name": "createFunds",
      "outputs": [],
      "payable": false,
      "stateMutability": "nonpayable",
      "type": "function"
    },
    {
      "constant": true,
      "inputs": [],
      "name": "getAllDeployedFunds",
      "outputs": [
        {
          "internalType": "address[]",
          "name": "",
          "type": "address[]"
        }
      ],
      "payable": false,
      "stateMutability": "view",
      "type": "function"
    },
    {
      "constant": true,
      "inputs": [
        {
          "internalType": "address",
          "name": "_fundaddress",
          "type": "address"
        }
      ],
      "name": "getDetailsOfFund",
      "outputs": [
        {
          "components": [
            {
              "internalType": "string",
              "name": "name",
              "type": "string"
            },
            {
              "internalType": "string",
              "name": "description",
              "type": "string"
            }
          ],
          "internalType": "struct factorypaardarshak.fundinfo",
          "name": "",
          "type": "tuple"
        }
      ],
      "payable": false,
      "stateMutability": "view",
      "type": "function"
    }
  ],
  "bytecode": "0x608060405234801561001057600080fd5b50613a61806100206000396000f3fe60806040523480156200001157600080fd5b5060043610620000465760003560e01c80631e1b81e5146200004b578063543153b5146200006b578063e0f46f5a146200008d575b600080fd5b620000696004803603620000639190810190620005ce565b620000c3565b005b6200007562000221565b604051620000849190620007b1565b60405180910390f35b620000ab6004803603620000a59190810190620005a2565b620002b1565b604051620000ba919062000820565b60405180910390f35b6000828233604051620000d69062000458565b620000e493929190620007d5565b604051809103906000f08015801562000101573d6000803e3d6000fd5b50905060008190806001815401808255809150509060018203906000526020600020016000909192909190916101000a81548173ffffffffffffffffffffffffffffffffffffffff021916908373ffffffffffffffffffffffffffffffffffffffff1602179055505082600160008373ffffffffffffffffffffffffffffffffffffffff1673ffffffffffffffffffffffffffffffffffffffff1681526020019081526020016000206000019080519060200190620001c292919062000466565b5081600160008373ffffffffffffffffffffffffffffffffffffffff1673ffffffffffffffffffffffffffffffffffffffff16815260200190815260200160002060010190805190602001906200021b92919062000466565b50505050565b60606000805480602002602001604051908101604052809291908181526020018280548015620002a757602002820191906000526020600020905b8160009054906101000a900473ffffffffffffffffffffffffffffffffffffffff1673ffffffffffffffffffffffffffffffffffffffff16815260200190600101908083116200025c575b5050505050905090565b620002bb620004ed565b600160008373ffffffffffffffffffffffffffffffffffffffff1673ffffffffffffffffffffffffffffffffffffffff168152602001908152602001600020604051806040016040529081600082018054600181600116156101000203166002900480601f016020809104026020016040519081016040528092919081815260200182805460018160011615610100020316600290048015620003a25780601f106200037657610100808354040283529160200191620003a2565b820191906000526020600020905b8154815290600101906020018083116200038457829003601f168201915b50505050508152602001600182018054600181600116156101000203166002900480601f016020809104026020016040519081016040528092919081815260200182805460018160011615610100020316600290048015620004485780601f106200041c5761010080835404028352916020019162000448565b820191906000526020600020905b8154815290600101906020018083116200042a57829003601f168201915b5050505050815250509050919050565b61302e80620009f183390190565b828054600181600116156101000203166002900490600052602060002090601f016020900481019282601f10620004a957805160ff1916838001178555620004da565b82800160010185558215620004da579182015b82811115620004d9578251825591602001919060010190620004bc565b5b509050620004e9919062000507565b5090565b604051806040016040528060608152602001606081525090565b6200052c91905b80821115620005285760008160009055506001016200050e565b5090565b90565b6000813590506200054081620009d6565b92915050565b600082601f8301126200055857600080fd5b81356200056f620005698262000872565b62000844565b915080825260208301602083018583830111156200058c57600080fd5b6200059983828462000980565b50505092915050565b600060208284031215620005b557600080fd5b6000620005c5848285016200052f565b91505092915050565b60008060408385031215620005e257600080fd5b600083013567ffffffffffffffff811115620005fd57600080fd5b6200060b8582860162000546565b925050602083013567ffffffffffffffff8111156200062957600080fd5b620006378582860162000546565b9150509250929050565b60006200064f83836200066c565b60208301905092915050565b620006668162000944565b82525050565b620006778162000910565b82525050565b60006200068a82620008af565b620006968185620008dd565b9350620006a3836200089f565b8060005b83811015620006da578151620006be888262000641565b9750620006cb83620008d0565b925050600181019050620006a7565b5085935050505092915050565b6000620006f482620008c5565b620007008185620008ff565b9350620007128185602086016200098f565b6200071d81620009c5565b840191505092915050565b60006200073582620008ba565b620007418185620008ee565b9350620007538185602086016200098f565b6200075e81620009c5565b840191505092915050565b6000604083016000830151848203600086015262000788828262000728565b91505060208301518482036020860152620007a4828262000728565b9150508091505092915050565b60006020820190508181036000830152620007cd81846200067d565b905092915050565b60006060820190508181036000830152620007f18186620006e7565b90508181036020830152620008078185620006e7565b90506200081860408301846200065b565b949350505050565b600060208201905081810360008301526200083c818462000769565b905092915050565b6000604051905081810181811067ffffffffffffffff821117156200086857600080fd5b8060405250919050565b600067ffffffffffffffff8211156200088a57600080fd5b601f19601f8301169050602081019050919050565b6000819050602082019050919050565b600081519050919050565b600081519050919050565b600081519050919050565b6000602082019050919050565b600082825260208201905092915050565b600082825260208201905092915050565b600082825260208201905092915050565b60006200091d8262000924565b9050919050565b600073ffffffffffffffffffffffffffffffffffffffff82169050919050565b6000620009518262000958565b9050919050565b600062000965826200096c565b9050919050565b6000620009798262000924565b9050919050565b82818337600083830152505050565b60005b83811015620009af57808201518184015260208101905062000992565b83811115620009bf576000848401525b50505050565b6000601f19601f8301169050919050565b620009e18162000910565b8114620009ed57600080fd5b5056fe60806040523480156200001157600080fd5b506040516200302e3803806200302e8339818101604052620000379190810190620003cf565b806000806101000a81548173ffffffffffffffffffffffffffffffffffffffff021916908373ffffffffffffffffffffffffffffffffffffffff1602179055506040518060400160405280600481526020017f526f6f7400000000000000000000000000000000000000000000000000000000815250600760008060009054906101000a900473ffffffffffffffffffffffffffffffffffffffff1673ffffffffffffffffffffffffffffffffffffffff1673ffffffffffffffffffffffffffffffffffffffff168152602001908152602001600020600001908051906020019062000125929190620002ad565b506001600760008060009054906101000a900473ffffffffffffffffffffffffffffffffffffffff1673ffffffffffffffffffffffffffffffffffffffff1673ffffffffffffffffffffffffffffffffffffffff16815260200190815260200160002060010160006101000a81548160ff02191690831515021790555060086000809054906101000a900473ffffffffffffffffffffffffffffffffffffffff1690806001815401808255809150509060018203906000526020600020016000909192909190916101000a81548173ffffffffffffffffffffffffffffffffffffffff021916908373ffffffffffffffffffffffffffffffffffffffff16021790555050826002600001908051906020019062000244929190620002ad565b50816002600101908051906020019062000260929190620002ad565b50806002800160006101000a81548173ffffffffffffffffffffffffffffffffffffffff021916908373ffffffffffffffffffffffffffffffffffffffff16021790555050505062000536565b828054600181600116156101000203166002900490600052602060002090601f016020900481019282601f10620002f057805160ff191683800117855562000321565b8280016001018555821562000321579182015b828111156200032057825182559160200191906001019062000303565b5b50905062000330919062000334565b5090565b6200035991905b80821115620003555760008160009055506001016200033b565b5090565b90565b6000815190506200036d816200051c565b92915050565b600082601f8301126200038557600080fd5b81516200039c620003968262000485565b62000457565b91508082526020830160208301858383011115620003b957600080fd5b620003c6838284620004e6565b50505092915050565b600080600060608486031215620003e557600080fd5b600084015167ffffffffffffffff8111156200040057600080fd5b6200040e8682870162000373565b935050602084015167ffffffffffffffff8111156200042c57600080fd5b6200043a8682870162000373565b92505060406200044d868287016200035c565b9150509250925092565b6000604051905081810181811067ffffffffffffffff821117156200047b57600080fd5b8060405250919050565b600067ffffffffffffffff8211156200049d57600080fd5b601f19601f8301169050602081019050919050565b6000620004bf82620004c6565b9050919050565b600073ffffffffffffffffffffffffffffffffffffffff82169050919050565b60005b8381101562000506578082015181840152602081019050620004e9565b8381111562000516576000848401525b50505050565b6200052781620004b2565b81146200053357600080fd5b50565b612ae880620005466000396000f3fe6080604052600436106100a75760003560e01c80638f3e3c35116100645780638f3e3c35146101a957806393a06227146101e6578063964d820514610202578063bb7948441461022d578063eb9d03ce14610256578063ec23368414610281576100a7565b80631fbabfce146100ac57806339df43ff146100d55780633fd490ed146100fe57806365943e501461011a57806371ccadce1461014357806375de3e751461016c575b600080fd5b3480156100b857600080fd5b506100d360048036036100ce9190810190612242565b6102ac565b005b3480156100e157600080fd5b506100fc60048036036100f79190810190611f94565b61045e565b005b610118600480360361011391908101906120c8565b610506565b005b34801561012657600080fd5b50610141600480360361013c9190810190612079565b61071e565b005b34801561014f57600080fd5b5061016a6004803603610165919081019061219b565b610f0b565b005b34801561017857600080fd5b50610193600480360361018e9190810190611f6b565b61122f565b6040516101a091906127c7565b60405180910390f35b3480156101b557600080fd5b506101d060048036036101cb9190810190611fbd565b611345565b6040516101dd919061280b565b60405180910390f35b61020060048036036101fb9190810190611fe6565b6115a5565b005b34801561020e57600080fd5b5061021761186c565b6040516102249190612725565b60405180910390f35b34801561023957600080fd5b50610254600480360361024f9190810190612134565b6118c4565b005b34801561026257600080fd5b5061026b611a97565b6040516102789190612703565b60405180910390f35b34801561028d57600080fd5b50610296611b25565b6040516102a391906127e9565b60405180910390f35b60011515600760003373ffffffffffffffffffffffffffffffffffffffff1673ffffffffffffffffffffffffffffffffffffffff16815260200190815260200160002060010160009054906101000a900460ff16151514610342576040517f08c379a0000000000000000000000000000000000000000000000000000000008152600401610339906127a7565b60405180910390fd5b81600760008373ffffffffffffffffffffffffffffffffffffffff1673ffffffffffffffffffffffffffffffffffffffff1681526020019081526020016000206000019080519060200190610398929190611cd9565b506001600760008373ffffffffffffffffffffffffffffffffffffffff1673ffffffffffffffffffffffffffffffffffffffff16815260200190815260200160002060010160006101000a81548160ff02191690831515021790555060088190806001815401808255809150509060018203906000526020600020016000909192909190916101000a81548173ffffffffffffffffffffffffffffffffffffffff021916908373ffffffffffffffffffffffffffffffffffffffff160217905550505050565b6000809054906101000a900473ffffffffffffffffffffffffffffffffffffffff1673ffffffffffffffffffffffffffffffffffffffff163373ffffffffffffffffffffffffffffffffffffffff16146104ed576040517f08c379a00000000000000000000000000000000000000000000000000000000081526004016104e490612767565b60405180910390fd5b8073ffffffffffffffffffffffffffffffffffffffff16ff5b600560008581526020019081526020016000206000016040518060c00160405280858152602001600063ffffffff16815260200184848080601f016020809104026020016040519081016040528093929190818152602001838380828437600081840152601f19601f8201169050808301925050505050505081526020016040518060400160405280600481526020017f726f6f740000000000000000000000000000000000000000000000000000000081525081526020016000809054906101000a900473ffffffffffffffffffffffffffffffffffffffff1673ffffffffffffffffffffffffffffffffffffffff168152602001600154815250908060018154018082558091505090600182039060005260206000209060060201600090919290919091506000820151816000015560208201518160010160006101000a81548163ffffffff021916908363ffffffff160217905550604082015181600201908051906020019061067a929190611d59565b506060820151816003019080519060200190610697929190611d59565b5060808201518160040160006101000a81548173ffffffffffffffffffffffffffffffffffffffff021916908373ffffffffffffffffffffffffffffffffffffffff16021790555060a08201518160050155505050600684908060018154018082558091505090600182039060005260206000200160009091929091909150555050505050565b6000600160056000868152602001908152602001600020600001805490500390503373ffffffffffffffffffffffffffffffffffffffff1660056000868152602001908152602001600020600001828154811061077757fe5b906000526020600020906006020160040160009054906101000a900473ffffffffffffffffffffffffffffffffffffffff1673ffffffffffffffffffffffffffffffffffffffff16146107ff576040517f08c379a00000000000000000000000000000000000000000000000000000000081526004016107f690612747565b60405180910390fd5b8260056000868152602001908152602001600020600001828154811061082157fe5b9060005260206000209060060201600001541161083d57600080fd5b60008360056000878152602001908152602001600020600001838154811061086157fe5b906000526020600020906006020160000154039050600560008681526020019081526020016000206000016040518060c00160405280868152602001600163ffffffff1681526020016005600089815260200190815260200160002060000185815481106108cb57fe5b90600052602060002090600602016002018054600181600116156101000203166002900480601f0160208091040260200160405190810160405280929190818152602001828054600181600116156101000203166002900480156109705780601f1061094557610100808354040283529160200191610970565b820191906000526020600020905b81548152906001019060200180831161095357829003601f168201915b5050505050815260200160056000898152602001908152602001600020600001858154811061099b57fe5b90600052602060002090600602016003018054600181600116156101000203166002900480601f016020809104026020016040519081016040528092919081815260200182805460018160011615610100020316600290048015610a405780601f10610a1557610100808354040283529160200191610a40565b820191906000526020600020905b815481529060010190602001808311610a2357829003601f168201915b50505050508152602001600560008981526020019081526020016000206000018581548110610a6b57fe5b906000526020600020906006020160040160009054906101000a900473ffffffffffffffffffffffffffffffffffffffff1673ffffffffffffffffffffffffffffffffffffffff16815260200185815250908060018154018082558091505090600182039060005260206000209060060201600090919290919091506000820151816000015560208201518160010160006101000a81548163ffffffff021916908363ffffffff1602179055506040820151816002019080519060200190610b34929190611d59565b506060820151816003019080519060200190610b51929190611d59565b5060808201518160040160006101000a81548173ffffffffffffffffffffffffffffffffffffffff021916908373ffffffffffffffffffffffffffffffffffffffff16021790555060a08201518160050155505050600560008481526020019081526020016000206000016040518060c00160405280838152602001600163ffffffff168152602001600560008981526020019081526020016000206000018581548110610bfb57fe5b90600052602060002090600602016002018054600181600116156101000203166002900480601f016020809104026020016040519081016040528092919081815260200182805460018160011615610100020316600290048015610ca05780601f10610c7557610100808354040283529160200191610ca0565b820191906000526020600020905b815481529060010190602001808311610c8357829003601f168201915b50505050508152602001600560008981526020019081526020016000206000018581548110610ccb57fe5b90600052602060002090600602016003018054600181600116156101000203166002900480601f016020809104026020016040519081016040528092919081815260200182805460018160011615610100020316600290048015610d705780601f10610d4557610100808354040283529160200191610d70565b820191906000526020600020905b815481529060010190602001808311610d5357829003601f168201915b50505050508152602001600560008981526020019081526020016000206000018581548110610d9b57fe5b906000526020600020906006020160040160009054906101000a900473ffffffffffffffffffffffffffffffffffffffff1673ffffffffffffffffffffffffffffffffffffffff168152602001600154815250908060018154018082558091505090600182039060005260206000209060060201600090919290919091506000820151816000015560208201518160010160006101000a81548163ffffffff021916908363ffffffff1602179055506040820151816002019080519060200190610e66929190611d59565b506060820151816003019080519060200190610e83929190611d59565b5060808201518160040160006101000a81548173ffffffffffffffffffffffffffffffffffffffff021916908373ffffffffffffffffffffffffffffffffffffffff16021790555060a0820151816005015550505060068390806001815401808255809150509060018203906000526020600020016000909192909190915055505050505050565b3373ffffffffffffffffffffffffffffffffffffffff1660056000878152602001908152602001600020600001600160056000898152602001908152602001600020600001805490500381548110610f5f57fe5b906000526020600020906006020160040160009054906101000a900473ffffffffffffffffffffffffffffffffffffffff1673ffffffffffffffffffffffffffffffffffffffff1614610fe7576040517f08c379a0000000000000000000000000000000000000000000000000000000008152600401610fde90612747565b60405180910390fd5b3373ffffffffffffffffffffffffffffffffffffffff168173ffffffffffffffffffffffffffffffffffffffff161415611056576040517f08c379a000000000000000000000000000000000000000000000000000000000815260040161104d90612787565b60405180910390fd5b600060016005600088815260200190815260200160002060000180549050039050600560008781526020019081526020016000206000016040518060c00160405280600560008a815260200190815260200160002060000184815481106110b957fe5b90600052602060002090600602016000015481526020018760ff1663ffffffff1681526020018681526020018581526020018473ffffffffffffffffffffffffffffffffffffffff168152602001600560008a8152602001908152602001600020600001848154811061112857fe5b906000526020600020906006020160050154815250908060018154018082558091505090600182039060005260206000209060060201600090919290919091506000820151816000015560208201518160010160006101000a81548163ffffffff021916908363ffffffff16021790555060408201518160020190805190602001906111b5929190611d59565b5060608201518160030190805190602001906111d2929190611d59565b5060808201518160040160006101000a81548173ffffffffffffffffffffffffffffffffffffffff021916908373ffffffffffffffffffffffffffffffffffffffff16021790555060a08201518160050155505050505050505050565b611237611dd9565b600760008373ffffffffffffffffffffffffffffffffffffffff1673ffffffffffffffffffffffffffffffffffffffff168152602001908152602001600020604051806040016040529081600082018054600181600116156101000203166002900480601f01602080910402602001604051908101604052809291908181526020018280546001816001161561010002031660029004801561131a5780601f106112ef5761010080835404028352916020019161131a565b820191906000526020600020905b8154815290600101906020018083116112fd57829003601f168201915b505050505081526020016001820160009054906101000a900460ff1615151515815250509050919050565b61134d611df5565b6005600083815260200190815260200160002060405180602001604052908160008201805480602002602001604051908101604052809291908181526020016000905b8282101561159657838290600052602060002090600602016040518060c0016040529081600082015481526020016001820160009054906101000a900463ffffffff1663ffffffff1663ffffffff168152602001600282018054600181600116156101000203166002900480601f01602080910402602001604051908101604052809291908181526020018280546001816001161561010002031660029004801561147c5780601f106114515761010080835404028352916020019161147c565b820191906000526020600020905b81548152906001019060200180831161145f57829003601f168201915b50505050508152602001600382018054600181600116156101000203166002900480601f01602080910402602001604051908101604052809291908181526020018280546001816001161561010002031660029004801561151e5780601f106114f35761010080835404028352916020019161151e565b820191906000526020600020905b81548152906001019060200180831161150157829003601f168201915b505050505081526020016004820160009054906101000a900473ffffffffffffffffffffffffffffffffffffffff1673ffffffffffffffffffffffffffffffffffffffff1673ffffffffffffffffffffffffffffffffffffffff16815260200160058201548152505081526020019060010190611390565b50505050815250509050919050565b3373ffffffffffffffffffffffffffffffffffffffff16600560008681526020019081526020016000206000016001600560008881526020019081526020016000206000018054905003815481106115f957fe5b906000526020600020906006020160040160009054906101000a900473ffffffffffffffffffffffffffffffffffffffff1673ffffffffffffffffffffffffffffffffffffffff1614611681576040517f08c379a000000000000000000000000000000000000000000000000000000000815260040161167890612747565b60405180910390fd5b8273ffffffffffffffffffffffffffffffffffffffff166108fc349081150290604051600060405180830381858888f193505050501580156116c7573d6000803e3d6000fd5b50600060016005600087815260200190815260200160002060000180549050039050600560008681526020019081526020016000206000016040518060c00160405280348152602001600263ffffffff1681526020018581526020018481526020018673ffffffffffffffffffffffffffffffffffffffff16815260200160056000898152602001908152602001600020600001848154811061176657fe5b906000526020600020906006020160050154815250908060018154018082558091505090600182039060005260206000209060060201600090919290919091506000820151816000015560208201518160010160006101000a81548163ffffffff021916908363ffffffff16021790555060408201518160020190805190602001906117f3929190611d59565b506060820151816003019080519060200190611810929190611d59565b5060808201518160040160006101000a81548173ffffffffffffffffffffffffffffffffffffffff021916908373ffffffffffffffffffffffffffffffffffffffff16021790555060a082015181600501555050505050505050565b606060068054806020026020016040519081016040528092919081815260200182805480156118ba57602002820191906000526020600020905b8154815260200190600101908083116118a6575b5050505050905090565b600560008481526020019081526020016000206000016040518060c00160405280848152602001600063ffffffff1681526020018381526020016040518060400160405280600481526020017f726f6f740000000000000000000000000000000000000000000000000000000081525081526020016000809054906101000a900473ffffffffffffffffffffffffffffffffffffffff1673ffffffffffffffffffffffffffffffffffffffff168152602001600154815250908060018154018082558091505090600182039060005260206000209060060201600090919290919091506000820151816000015560208201518160010160006101000a81548163ffffffff021916908363ffffffff16021790555060408201518160020190805190602001906119f4929190611d59565b506060820151816003019080519060200190611a11929190611d59565b5060808201518160040160006101000a81548173ffffffffffffffffffffffffffffffffffffffff021916908373ffffffffffffffffffffffffffffffffffffffff16021790555060a082015181600501555050506006839080600181540180825580915050906001820390600052602060002001600090919290919091505550505050565b60606008805480602002602001604051908101604052809291908181526020018280548015611b1b57602002820191906000526020600020905b8160009054906101000a900473ffffffffffffffffffffffffffffffffffffffff1673ffffffffffffffffffffffffffffffffffffffff1681526020019060010190808311611ad1575b5050505050905090565b611b2d611e08565b6002604051806060016040529081600082018054600181600116156101000203166002900480601f016020809104026020016040519081016040528092919081815260200182805460018160011615610100020316600290048015611bd35780601f10611ba857610100808354040283529160200191611bd3565b820191906000526020600020905b815481529060010190602001808311611bb657829003601f168201915b50505050508152602001600182018054600181600116156101000203166002900480601f016020809104026020016040519081016040528092919081815260200182805460018160011615610100020316600290048015611c755780601f10611c4a57610100808354040283529160200191611c75565b820191906000526020600020905b815481529060010190602001808311611c5857829003601f168201915b505050505081526020016002820160009054906101000a900473ffffffffffffffffffffffffffffffffffffffff1673ffffffffffffffffffffffffffffffffffffffff1673ffffffffffffffffffffffffffffffffffffffff1681525050905090565b828054600181600116156101000203166002900490600052602060002090601f016020900481019282601f10611d1a57805160ff1916838001178555611d48565b82800160010185558215611d48579182015b82811115611d47578251825591602001919060010190611d2c565b5b509050611d559190611e3f565b5090565b828054600181600116156101000203166002900490600052602060002090601f016020900481019282601f10611d9a57805160ff1916838001178555611dc8565b82800160010185558215611dc8579182015b82811115611dc7578251825591602001919060010190611dac565b5b509050611dd59190611e3f565b5090565b6040518060400160405280606081526020016000151581525090565b6040518060200160405280606081525090565b60405180606001604052806060815260200160608152602001600073ffffffffffffffffffffffffffffffffffffffff1681525090565b611e6191905b80821115611e5d576000816000905550600101611e45565b5090565b90565b600081359050611e7381612a32565b92915050565b600081359050611e8881612a49565b92915050565b600081359050611e9d81612a60565b92915050565b60008083601f840112611eb557600080fd5b8235905067ffffffffffffffff811115611ece57600080fd5b602083019150836001820283011115611ee657600080fd5b9250929050565b600082601f830112611efe57600080fd5b8135611f11611f0c8261285a565b61282d565b91508082526020830160208301858383011115611f2d57600080fd5b611f388382846129df565b50505092915050565b600081359050611f5081612a77565b92915050565b600081359050611f6581612a8e565b92915050565b600060208284031215611f7d57600080fd5b6000611f8b84828501611e64565b91505092915050565b600060208284031215611fa657600080fd5b6000611fb484828501611e79565b91505092915050565b600060208284031215611fcf57600080fd5b6000611fdd84828501611e8e565b91505092915050565b60008060008060808587031215611ffc57600080fd5b600061200a87828801611e8e565b945050602061201b87828801611e79565b935050604085013567ffffffffffffffff81111561203857600080fd5b61204487828801611eed565b925050606085013567ffffffffffffffff81111561206157600080fd5b61206d87828801611eed565b91505092959194509250565b60008060006060848603121561208e57600080fd5b600061209c86828701611e8e565b93505060206120ad86828701611f41565b92505060406120be86828701611e8e565b9150509250925092565b600080600080606085870312156120de57600080fd5b60006120ec87828801611e8e565b94505060206120fd87828801611f41565b935050604085013567ffffffffffffffff81111561211a57600080fd5b61212687828801611ea3565b925092505092959194509250565b60008060006060848603121561214957600080fd5b600061215786828701611e8e565b935050602061216886828701611f41565b925050604084013567ffffffffffffffff81111561218557600080fd5b61219186828701611eed565b9150509250925092565b600080600080600060a086880312156121b357600080fd5b60006121c188828901611e8e565b95505060206121d288828901611f56565b945050604086013567ffffffffffffffff8111156121ef57600080fd5b6121fb88828901611eed565b935050606086013567ffffffffffffffff81111561221857600080fd5b61222488828901611eed565b925050608061223588828901611e64565b9150509295509295909350565b6000806040838503121561225557600080fd5b600083013567ffffffffffffffff81111561226f57600080fd5b61227b85828601611eed565b925050602061228c85828601611e64565b9150509250929050565b60006122a283836122da565b60208301905092915050565b60006122ba8383612429565b60208301905092915050565b60006122d28383612597565b905092915050565b6122e38161295e565b82525050565b60006122f4826128b6565b6122fe8185612909565b935061230983612886565b8060005b8381101561233a5781516123218882612296565b975061232c836128e2565b92505060018101905061230d565b5085935050505092915050565b6000612352826128c1565b61235c818561291a565b935061236783612896565b8060005b8381101561239857815161237f88826122ae565b975061238a836128ef565b92505060018101905061236b565b5085935050505092915050565b60006123b0826128cc565b6123ba818561292b565b9350836020820285016123cc856128a6565b8060005b8581101561240857848403895281516123e985826122c6565b94506123f4836128fc565b925060208a019950506001810190506123d0565b50829750879550505050505092915050565b61242381612982565b82525050565b6124328161298e565b82525050565b6000612443826128d7565b61244d818561293c565b935061245d8185602086016129ee565b61246681612a21565b840191505092915050565b600061247e601f8361294d565b91507f596f7520617265206e6f74206f776e6572206f66207468697320746f6b656e006000830152602082019050919050565b60006124be60138361294d565b91507f596f7520617265206e6f7420616c6c6f776564000000000000000000000000006000830152602082019050919050565b60006124fe60218361294d565b91507f596f752063616e6e6f742073656e6420746f6b656e20746f20796f756573656c60008301527f66000000000000000000000000000000000000000000000000000000000000006020830152604082019050919050565b600061256460178361294d565b91507f596f7520617265206e6f74206120617574686f726974790000000000000000006000830152602082019050919050565b600060c0830160008301516125af60008601826126e5565b5060208301516125c260208601826126f4565b50604083015184820360408601526125da8282612438565b915050606083015184820360608601526125f48282612438565b915050608083015161260960808601826122da565b5060a083015161261c60a0860182612429565b508091505092915050565b600060408301600083015184820360008601526126448282612438565b9150506020830151612659602086018261241a565b508091505092915050565b600060608301600083015184820360008601526126818282612438565b9150506020830151848203602086015261269b8282612438565b91505060408301516126b060408601826122da565b508091505092915050565b600060208301600083015184820360008601526126d882826123a5565b9150508091505092915050565b6126ee816129b8565b82525050565b6126fd816129c2565b82525050565b6000602082019050818103600083015261271d81846122e9565b905092915050565b6000602082019050818103600083015261273f8184612347565b905092915050565b6000602082019050818103600083015261276081612471565b9050919050565b60006020820190508181036000830152612780816124b1565b9050919050565b600060208201905081810360008301526127a0816124f1565b9050919050565b600060208201905081810360008301526127c081612557565b9050919050565b600060208201905081810360008301526127e18184612627565b905092915050565b600060208201905081810360008301526128038184612664565b905092915050565b6000602082019050818103600083015261282581846126bb565b905092915050565b6000604051905081810181811067ffffffffffffffff8211171561285057600080fd5b8060405250919050565b600067ffffffffffffffff82111561287157600080fd5b601f19601f8301169050602081019050919050565b6000819050602082019050919050565b6000819050602082019050919050565b6000819050602082019050919050565b600081519050919050565b600081519050919050565b600081519050919050565b600081519050919050565b6000602082019050919050565b6000602082019050919050565b6000602082019050919050565b600082825260208201905092915050565b600082825260208201905092915050565b600082825260208201905092915050565b600082825260208201905092915050565b600082825260208201905092915050565b600061296982612998565b9050919050565b600061297b82612998565b9050919050565b60008115159050919050565b6000819050919050565b600073ffffffffffffffffffffffffffffffffffffffff82169050919050565b6000819050919050565b600063ffffffff82169050919050565b600060ff82169050919050565b82818337600083830152505050565b60005b83811015612a0c5780820151818401526020810190506129f1565b83811115612a1b576000848401525b50505050565b6000601f19601f8301169050919050565b612a3b8161295e565b8114612a4657600080fd5b50565b612a5281612970565b8114612a5d57600080fd5b50565b612a698161298e565b8114612a7457600080fd5b50565b612a80816129b8565b8114612a8b57600080fd5b50565b612a97816129d2565b8114612aa257600080fd5b5056fea365627a7a723158200d09767fa04917b81334be84c252c51f9018476cc11ecdcba9e671146cb80ddb6c6578706572696d656e74616cf564736f6c634300050c0040a365627a7a723158208bca1a7705df9e85c4017688d92a76555e31e32c9defb6aac4642560e59978cf6c6578706572696d656e74616cf564736f6c634300050c0040",
  "source": "pragma solidity ^0.5.0;\r\npragma experimental ABIEncoderV2;\r\nimport \"./paardarshak.sol\";\r\n\r\n/**\r\n* @title Factory paardarshak\r\n* @author Abhishek Vispute\r\n*/\r\n\r\ncontract factorypaardarshak {\r\n    \r\n   address [] funds;\r\n   \r\n   struct fundinfo {\r\n       string name;\r\n       string description;\r\n   }\r\n   \r\n   mapping (address => fundinfo) fundstore;\r\n   \r\n   function createFunds(string memory _fname, string memory _fdescription) public {\r\n      paardarshak newfund = new paardarshak(_fname, _fdescription,msg.sender);\r\n    //   funds[address(newfund)] = newfund\r\n      funds.push(address(newfund));   \r\n      fundstore[address(newfund)].name = _fname;\r\n      fundstore[address(newfund)].description = _fdescription;\r\n   }\r\n   function getAllDeployedFunds() public view returns (address[] memory) {\r\n      return funds;\r\n   }\r\n   \r\n   function getDetailsOfFund(address  _fundaddress) public view returns (fundinfo memory)\r\n   {\r\n       return fundstore[_fundaddress];\r\n   }\r\n}",
  "sourcePath": "C:/Users/ASUS/Desktop/paaradarshak-chainrunner/contracts/factorypaardarshak.sol",
  "compiler": {
    "name": "solc",
    "version": "0.5.12+commit.7709ece9.Emscripten.clang"
  },
  "schemaVersion": "3.0.20",
  "updatedAt": "2020-06-28T08:57:52.165Z",
  "networkType": "ethereum",
  "devdoc": {
    "author": "Abhishek Vispute",
    "methods": {},
    "title": "Factory paardarshak"
  },
  "userdoc": {
    "methods": {}
  }
}