{
  "contractName": "paardarshak",
  "abi": [
    {
      "inputs": [
        {
          "internalType": "string",
          "name": "_fname",
          "type": "string"
        },
        {
          "internalType": "string",
          "name": "_fdesc",
          "type": "string"
        },
        {
          "internalType": "address",
          "name": "_owner",
          "type": "address"
        }
      ],
      "payable": false,
      "stateMutability": "nonpayable",
      "type": "constructor"
    },
    {
      "constant": false,
      "inputs": [
        {
          "internalType": "bytes32",
          "name": "_key",
          "type": "bytes32"
        },
        {
          "internalType": "uint256",
          "name": "_value",
          "type": "uint256"
        },
        {
          "internalType": "string",
          "name": "_name",
          "type": "string"
        }
      ],
      "name": "createToken",
      "outputs": [],
      "payable": false,
      "stateMutability": "nonpayable",
      "type": "function"
    },
    {
      "constant": false,
      "inputs": [
        {
          "internalType": "bytes32",
          "name": "_key",
          "type": "bytes32"
        },
        {
          "internalType": "uint256",
          "name": "_valueofparenttoken",
          "type": "uint256"
        },
        {
          "internalType": "bytes32",
          "name": "_childkey",
          "type": "bytes32"
        }
      ],
      "name": "breakToken",
      "outputs": [],
      "payable": false,
      "stateMutability": "nonpayable",
      "type": "function"
    },
    {
      "constant": false,
      "inputs": [
        {
          "internalType": "bytes32",
          "name": "_key",
          "type": "bytes32"
        },
        {
          "internalType": "uint8",
          "name": "_typeOfOwner",
          "type": "uint8"
        },
        {
          "internalType": "string",
          "name": "_nextOwnername",
          "type": "string"
        },
        {
          "internalType": "string",
          "name": "_purpose",
          "type": "string"
        },
        {
          "internalType": "address",
          "name": "_nextOwner",
          "type": "address"
        }
      ],
      "name": "transferToken",
      "outputs": [],
      "payable": false,
      "stateMutability": "nonpayable",
      "type": "function"
    },
    {
      "constant": false,
      "inputs": [
        {
          "internalType": "bytes32",
          "name": "_key",
          "type": "bytes32"
        },
        {
          "internalType": "uint256",
          "name": "_value",
          "type": "uint256"
        },
        {
          "internalType": "string",
          "name": "_name",
          "type": "string"
        }
      ],
      "name": "donate",
      "outputs": [],
      "payable": true,
      "stateMutability": "payable",
      "type": "function"
    },
    {
      "constant": false,
      "inputs": [
        {
          "internalType": "bytes32",
          "name": "_key",
          "type": "bytes32"
        },
        {
          "internalType": "address payable",
          "name": "_add",
          "type": "address"
        },
        {
          "internalType": "string",
          "name": "_name",
          "type": "string"
        },
        {
          "internalType": "string",
          "name": "_purpose",
          "type": "string"
        }
      ],
      "name": "paymentToLeaf",
      "outputs": [],
      "payable": true,
      "stateMutability": "payable",
      "type": "function"
    },
    {
      "constant": true,
      "inputs": [
        {
          "internalType": "bytes32",
          "name": "_key",
          "type": "bytes32"
        }
      ],
      "name": "getSingleTokenDetails",
      "outputs": [
        {
          "components": [
            {
              "components": [
                {
                  "internalType": "uint256",
                  "name": "value",
                  "type": "uint256"
                },
                {
                  "internalType": "uint32",
                  "name": "typeOfOwner",
                  "type": "uint32"
                },
                {
                  "internalType": "string",
                  "name": "nameOfOwner",
                  "type": "string"
                },
                {
                  "internalType": "string",
                  "name": "purpose",
                  "type": "string"
                },
                {
                  "internalType": "address",
                  "name": "_owner",
                  "type": "address"
                },
                {
                  "internalType": "bytes32",
                  "name": "childtoken",
                  "type": "bytes32"
                }
              ],
              "internalType": "struct paardarshak.SingleInstanceOfHistory[]",
              "name": "CompleteHistoryOfToken",
              "type": "tuple[]"
            }
          ],
          "internalType": "struct paardarshak.token",
          "name": "",
          "type": "tuple"
        }
      ],
      "payable": false,
      "stateMutability": "view",
      "type": "function"
    },
    {
      "constant": true,
      "inputs": [],
      "name": "getAllTokenKeys",
      "outputs": [
        {
          "internalType": "bytes32[]",
          "name": "",
          "type": "bytes32[]"
        }
      ],
      "payable": false,
      "stateMutability": "view",
      "type": "function"
    },
    {
      "constant": false,
      "inputs": [
        {
          "internalType": "string",
          "name": "_childname",
          "type": "string"
        },
        {
          "internalType": "address",
          "name": "_add",
          "type": "address"
        }
      ],
      "name": "addAuthority",
      "outputs": [],
      "payable": false,
      "stateMutability": "nonpayable",
      "type": "function"
    },
    {
      "constant": true,
      "inputs": [
        {
          "internalType": "address",
          "name": "_add",
          "type": "address"
        }
      ],
      "name": "getSingleAuthDetails",
      "outputs": [
        {
          "components": [
            {
              "internalType": "string",
              "name": "name",
              "type": "string"
            },
            {
              "internalType": "bool",
              "name": "status",
              "type": "bool"
            }
          ],
          "internalType": "struct paardarshak.authority",
          "name": "",
          "type": "tuple"
        }
      ],
      "payable": false,
      "stateMutability": "view",
      "type": "function"
    },
    {
      "constant": true,
      "inputs": [],
      "name": "getAllListedAuthAddress",
      "outputs": [
        {
          "internalType": "address[]",
          "name": "",
          "type": "address[]"
        }
      ],
      "payable": false,
      "stateMutability": "view",
      "type": "function"
    },
    {
      "constant": true,
      "inputs": [],
      "name": "getFundInfo",
      "outputs": [
        {
          "components": [
            {
              "internalType": "string",
              "name": "name",
              "type": "string"
            },
            {
              "internalType": "string",
              "name": "description",
              "type": "string"
            }
          ],
          "internalType": "struct paardarshak.fundinfo",
          "name": "",
          "type": "tuple"
        }
      ],
      "payable": false,
      "stateMutability": "view",
      "type": "function"
    },
    {
      "constant": false,
      "inputs": [
        {
          "internalType": "address payable",
          "name": "_to",
          "type": "address"
        }
      ],
      "name": "destroySmartContract",
      "outputs": [],
      "payable": false,
      "stateMutability": "nonpayable",
      "type": "function"
    }
  ],
  "bytecode": "0x60806040523480156200001157600080fd5b5060405162002f6538038062002f6583398181016040526200003791908101906200038c565b806000806101000a81548173ffffffffffffffffffffffffffffffffffffffff021916908373ffffffffffffffffffffffffffffffffffffffff1602179055506040518060400160405280600481526020017f526f6f7400000000000000000000000000000000000000000000000000000000815250600660008060009054906101000a900473ffffffffffffffffffffffffffffffffffffffff1673ffffffffffffffffffffffffffffffffffffffff1673ffffffffffffffffffffffffffffffffffffffff1681526020019081526020016000206000019080519060200190620001259291906200026a565b506001600660008060009054906101000a900473ffffffffffffffffffffffffffffffffffffffff1673ffffffffffffffffffffffffffffffffffffffff1673ffffffffffffffffffffffffffffffffffffffff16815260200190815260200160002060010160006101000a81548160ff02191690831515021790555060076000809054906101000a900473ffffffffffffffffffffffffffffffffffffffff1690806001815401808255809150509060018203906000526020600020016000909192909190916101000a81548173ffffffffffffffffffffffffffffffffffffffff021916908373ffffffffffffffffffffffffffffffffffffffff160217905550508260026000019080519060200190620002449291906200026a565b508160026001019080519060200190620002609291906200026a565b50505050620004f3565b828054600181600116156101000203166002900490600052602060002090601f016020900481019282601f10620002ad57805160ff1916838001178555620002de565b82800160010185558215620002de579182015b82811115620002dd578251825591602001919060010190620002c0565b5b509050620002ed9190620002f1565b5090565b6200031691905b8082111562000312576000816000905550600101620002f8565b5090565b90565b6000815190506200032a81620004d9565b92915050565b600082601f8301126200034257600080fd5b815162000359620003538262000442565b62000414565b915080825260208301602083018583830111156200037657600080fd5b62000383838284620004a3565b50505092915050565b600080600060608486031215620003a257600080fd5b600084015167ffffffffffffffff811115620003bd57600080fd5b620003cb8682870162000330565b935050602084015167ffffffffffffffff811115620003e957600080fd5b620003f78682870162000330565b92505060406200040a8682870162000319565b9150509250925092565b6000604051905081810181811067ffffffffffffffff821117156200043857600080fd5b8060405250919050565b600067ffffffffffffffff8211156200045a57600080fd5b601f19601f8301169050602081019050919050565b60006200047c8262000483565b9050919050565b600073ffffffffffffffffffffffffffffffffffffffff82169050919050565b60005b83811015620004c3578082015181840152602081019050620004a6565b83811115620004d3576000848401525b50505050565b620004e4816200046f565b8114620004f057600080fd5b50565b612a6280620005036000396000f3fe6080604052600436106100a75760003560e01c80638f3e3c35116100645780638f3e3c35146101a957806393a06227146101e6578063964d820514610202578063bb7948441461022d578063eb9d03ce14610256578063ec23368414610281576100a7565b80631fbabfce146100ac57806339df43ff146100d55780633fd490ed146100fe57806365943e501461011a57806371ccadce1461014357806375de3e751461016c575b600080fd5b3480156100b857600080fd5b506100d360048036036100ce91908101906121cf565b6102ac565b005b3480156100e157600080fd5b506100fc60048036036100f79190810190611f21565b61045e565b005b61011860048036036101139190810190612055565b610506565b005b34801561012657600080fd5b50610141600480360361013c9190810190612006565b61071e565b005b34801561014f57600080fd5b5061016a60048036036101659190810190612128565b610f0b565b005b34801561017857600080fd5b50610193600480360361018e9190810190611ef8565b61122f565b6040516101a09190612741565b60405180910390f35b3480156101b557600080fd5b506101d060048036036101cb9190810190611f4a565b611345565b6040516101dd9190612785565b60405180910390f35b61020060048036036101fb9190810190611f73565b6115a5565b005b34801561020e57600080fd5b5061021761186c565b604051610224919061269f565b60405180910390f35b34801561023957600080fd5b50610254600480360361024f91908101906120c1565b6118c4565b005b34801561026257600080fd5b5061026b611a97565b604051610278919061267d565b60405180910390f35b34801561028d57600080fd5b50610296611b25565b6040516102a39190612763565b60405180910390f35b60011515600660003373ffffffffffffffffffffffffffffffffffffffff1673ffffffffffffffffffffffffffffffffffffffff16815260200190815260200160002060010160009054906101000a900460ff16151514610342576040517f08c379a000000000000000000000000000000000000000000000000000000000815260040161033990612721565b60405180910390fd5b81600660008373ffffffffffffffffffffffffffffffffffffffff1673ffffffffffffffffffffffffffffffffffffffff1681526020019081526020016000206000019080519060200190610398929190611c83565b506001600660008373ffffffffffffffffffffffffffffffffffffffff1673ffffffffffffffffffffffffffffffffffffffff16815260200190815260200160002060010160006101000a81548160ff02191690831515021790555060078190806001815401808255809150509060018203906000526020600020016000909192909190916101000a81548173ffffffffffffffffffffffffffffffffffffffff021916908373ffffffffffffffffffffffffffffffffffffffff160217905550505050565b6000809054906101000a900473ffffffffffffffffffffffffffffffffffffffff1673ffffffffffffffffffffffffffffffffffffffff163373ffffffffffffffffffffffffffffffffffffffff16146104ed576040517f08c379a00000000000000000000000000000000000000000000000000000000081526004016104e4906126e1565b60405180910390fd5b8073ffffffffffffffffffffffffffffffffffffffff16ff5b600460008581526020019081526020016000206000016040518060c00160405280858152602001600063ffffffff16815260200184848080601f016020809104026020016040519081016040528093929190818152602001838380828437600081840152601f19601f8201169050808301925050505050505081526020016040518060400160405280600481526020017f726f6f740000000000000000000000000000000000000000000000000000000081525081526020016000809054906101000a900473ffffffffffffffffffffffffffffffffffffffff1673ffffffffffffffffffffffffffffffffffffffff168152602001600154815250908060018154018082558091505090600182039060005260206000209060060201600090919290919091506000820151816000015560208201518160010160006101000a81548163ffffffff021916908363ffffffff160217905550604082015181600201908051906020019061067a929190611d03565b506060820151816003019080519060200190610697929190611d03565b5060808201518160040160006101000a81548173ffffffffffffffffffffffffffffffffffffffff021916908373ffffffffffffffffffffffffffffffffffffffff16021790555060a08201518160050155505050600584908060018154018082558091505090600182039060005260206000200160009091929091909150555050505050565b6000600160046000868152602001908152602001600020600001805490500390503373ffffffffffffffffffffffffffffffffffffffff1660046000868152602001908152602001600020600001828154811061077757fe5b906000526020600020906006020160040160009054906101000a900473ffffffffffffffffffffffffffffffffffffffff1673ffffffffffffffffffffffffffffffffffffffff16146107ff576040517f08c379a00000000000000000000000000000000000000000000000000000000081526004016107f6906126c1565b60405180910390fd5b8260046000868152602001908152602001600020600001828154811061082157fe5b9060005260206000209060060201600001541161083d57600080fd5b60008360046000878152602001908152602001600020600001838154811061086157fe5b906000526020600020906006020160000154039050600460008681526020019081526020016000206000016040518060c00160405280868152602001600163ffffffff1681526020016004600089815260200190815260200160002060000185815481106108cb57fe5b90600052602060002090600602016002018054600181600116156101000203166002900480601f0160208091040260200160405190810160405280929190818152602001828054600181600116156101000203166002900480156109705780601f1061094557610100808354040283529160200191610970565b820191906000526020600020905b81548152906001019060200180831161095357829003601f168201915b5050505050815260200160046000898152602001908152602001600020600001858154811061099b57fe5b90600052602060002090600602016003018054600181600116156101000203166002900480601f016020809104026020016040519081016040528092919081815260200182805460018160011615610100020316600290048015610a405780601f10610a1557610100808354040283529160200191610a40565b820191906000526020600020905b815481529060010190602001808311610a2357829003601f168201915b50505050508152602001600460008981526020019081526020016000206000018581548110610a6b57fe5b906000526020600020906006020160040160009054906101000a900473ffffffffffffffffffffffffffffffffffffffff1673ffffffffffffffffffffffffffffffffffffffff16815260200185815250908060018154018082558091505090600182039060005260206000209060060201600090919290919091506000820151816000015560208201518160010160006101000a81548163ffffffff021916908363ffffffff1602179055506040820151816002019080519060200190610b34929190611d03565b506060820151816003019080519060200190610b51929190611d03565b5060808201518160040160006101000a81548173ffffffffffffffffffffffffffffffffffffffff021916908373ffffffffffffffffffffffffffffffffffffffff16021790555060a08201518160050155505050600460008481526020019081526020016000206000016040518060c00160405280838152602001600163ffffffff168152602001600460008981526020019081526020016000206000018581548110610bfb57fe5b90600052602060002090600602016002018054600181600116156101000203166002900480601f016020809104026020016040519081016040528092919081815260200182805460018160011615610100020316600290048015610ca05780601f10610c7557610100808354040283529160200191610ca0565b820191906000526020600020905b815481529060010190602001808311610c8357829003601f168201915b50505050508152602001600460008981526020019081526020016000206000018581548110610ccb57fe5b90600052602060002090600602016003018054600181600116156101000203166002900480601f016020809104026020016040519081016040528092919081815260200182805460018160011615610100020316600290048015610d705780601f10610d4557610100808354040283529160200191610d70565b820191906000526020600020905b815481529060010190602001808311610d5357829003601f168201915b50505050508152602001600460008981526020019081526020016000206000018581548110610d9b57fe5b906000526020600020906006020160040160009054906101000a900473ffffffffffffffffffffffffffffffffffffffff1673ffffffffffffffffffffffffffffffffffffffff168152602001600154815250908060018154018082558091505090600182039060005260206000209060060201600090919290919091506000820151816000015560208201518160010160006101000a81548163ffffffff021916908363ffffffff1602179055506040820151816002019080519060200190610e66929190611d03565b506060820151816003019080519060200190610e83929190611d03565b5060808201518160040160006101000a81548173ffffffffffffffffffffffffffffffffffffffff021916908373ffffffffffffffffffffffffffffffffffffffff16021790555060a0820151816005015550505060058390806001815401808255809150509060018203906000526020600020016000909192909190915055505050505050565b3373ffffffffffffffffffffffffffffffffffffffff1660046000878152602001908152602001600020600001600160046000898152602001908152602001600020600001805490500381548110610f5f57fe5b906000526020600020906006020160040160009054906101000a900473ffffffffffffffffffffffffffffffffffffffff1673ffffffffffffffffffffffffffffffffffffffff1614610fe7576040517f08c379a0000000000000000000000000000000000000000000000000000000008152600401610fde906126c1565b60405180910390fd5b3373ffffffffffffffffffffffffffffffffffffffff168173ffffffffffffffffffffffffffffffffffffffff161415611056576040517f08c379a000000000000000000000000000000000000000000000000000000000815260040161104d90612701565b60405180910390fd5b600060016004600088815260200190815260200160002060000180549050039050600460008781526020019081526020016000206000016040518060c00160405280600460008a815260200190815260200160002060000184815481106110b957fe5b90600052602060002090600602016000015481526020018760ff1663ffffffff1681526020018681526020018581526020018473ffffffffffffffffffffffffffffffffffffffff168152602001600460008a8152602001908152602001600020600001848154811061112857fe5b906000526020600020906006020160050154815250908060018154018082558091505090600182039060005260206000209060060201600090919290919091506000820151816000015560208201518160010160006101000a81548163ffffffff021916908363ffffffff16021790555060408201518160020190805190602001906111b5929190611d03565b5060608201518160030190805190602001906111d2929190611d03565b5060808201518160040160006101000a81548173ffffffffffffffffffffffffffffffffffffffff021916908373ffffffffffffffffffffffffffffffffffffffff16021790555060a08201518160050155505050505050505050565b611237611d83565b600660008373ffffffffffffffffffffffffffffffffffffffff1673ffffffffffffffffffffffffffffffffffffffff168152602001908152602001600020604051806040016040529081600082018054600181600116156101000203166002900480601f01602080910402602001604051908101604052809291908181526020018280546001816001161561010002031660029004801561131a5780601f106112ef5761010080835404028352916020019161131a565b820191906000526020600020905b8154815290600101906020018083116112fd57829003601f168201915b505050505081526020016001820160009054906101000a900460ff1615151515815250509050919050565b61134d611d9f565b6004600083815260200190815260200160002060405180602001604052908160008201805480602002602001604051908101604052809291908181526020016000905b8282101561159657838290600052602060002090600602016040518060c0016040529081600082015481526020016001820160009054906101000a900463ffffffff1663ffffffff1663ffffffff168152602001600282018054600181600116156101000203166002900480601f01602080910402602001604051908101604052809291908181526020018280546001816001161561010002031660029004801561147c5780601f106114515761010080835404028352916020019161147c565b820191906000526020600020905b81548152906001019060200180831161145f57829003601f168201915b50505050508152602001600382018054600181600116156101000203166002900480601f01602080910402602001604051908101604052809291908181526020018280546001816001161561010002031660029004801561151e5780601f106114f35761010080835404028352916020019161151e565b820191906000526020600020905b81548152906001019060200180831161150157829003601f168201915b505050505081526020016004820160009054906101000a900473ffffffffffffffffffffffffffffffffffffffff1673ffffffffffffffffffffffffffffffffffffffff1673ffffffffffffffffffffffffffffffffffffffff16815260200160058201548152505081526020019060010190611390565b50505050815250509050919050565b3373ffffffffffffffffffffffffffffffffffffffff16600460008681526020019081526020016000206000016001600460008881526020019081526020016000206000018054905003815481106115f957fe5b906000526020600020906006020160040160009054906101000a900473ffffffffffffffffffffffffffffffffffffffff1673ffffffffffffffffffffffffffffffffffffffff1614611681576040517f08c379a0000000000000000000000000000000000000000000000000000000008152600401611678906126c1565b60405180910390fd5b8273ffffffffffffffffffffffffffffffffffffffff166108fc349081150290604051600060405180830381858888f193505050501580156116c7573d6000803e3d6000fd5b50600060016004600087815260200190815260200160002060000180549050039050600460008681526020019081526020016000206000016040518060c00160405280348152602001600263ffffffff1681526020018581526020018481526020018673ffffffffffffffffffffffffffffffffffffffff16815260200160046000898152602001908152602001600020600001848154811061176657fe5b906000526020600020906006020160050154815250908060018154018082558091505090600182039060005260206000209060060201600090919290919091506000820151816000015560208201518160010160006101000a81548163ffffffff021916908363ffffffff16021790555060408201518160020190805190602001906117f3929190611d03565b506060820151816003019080519060200190611810929190611d03565b5060808201518160040160006101000a81548173ffffffffffffffffffffffffffffffffffffffff021916908373ffffffffffffffffffffffffffffffffffffffff16021790555060a082015181600501555050505050505050565b606060058054806020026020016040519081016040528092919081815260200182805480156118ba57602002820191906000526020600020905b8154815260200190600101908083116118a6575b5050505050905090565b600460008481526020019081526020016000206000016040518060c00160405280848152602001600063ffffffff1681526020018381526020016040518060400160405280600481526020017f726f6f740000000000000000000000000000000000000000000000000000000081525081526020016000809054906101000a900473ffffffffffffffffffffffffffffffffffffffff1673ffffffffffffffffffffffffffffffffffffffff168152602001600154815250908060018154018082558091505090600182039060005260206000209060060201600090919290919091506000820151816000015560208201518160010160006101000a81548163ffffffff021916908363ffffffff16021790555060408201518160020190805190602001906119f4929190611d03565b506060820151816003019080519060200190611a11929190611d03565b5060808201518160040160006101000a81548173ffffffffffffffffffffffffffffffffffffffff021916908373ffffffffffffffffffffffffffffffffffffffff16021790555060a082015181600501555050506005839080600181540180825580915050906001820390600052602060002001600090919290919091505550505050565b60606007805480602002602001604051908101604052809291908181526020018280548015611b1b57602002820191906000526020600020905b8160009054906101000a900473ffffffffffffffffffffffffffffffffffffffff1673ffffffffffffffffffffffffffffffffffffffff1681526020019060010190808311611ad1575b5050505050905090565b611b2d611db2565b6002604051806040016040529081600082018054600181600116156101000203166002900480601f016020809104026020016040519081016040528092919081815260200182805460018160011615610100020316600290048015611bd35780601f10611ba857610100808354040283529160200191611bd3565b820191906000526020600020905b815481529060010190602001808311611bb657829003601f168201915b50505050508152602001600182018054600181600116156101000203166002900480601f016020809104026020016040519081016040528092919081815260200182805460018160011615610100020316600290048015611c755780601f10611c4a57610100808354040283529160200191611c75565b820191906000526020600020905b815481529060010190602001808311611c5857829003601f168201915b505050505081525050905090565b828054600181600116156101000203166002900490600052602060002090601f016020900481019282601f10611cc457805160ff1916838001178555611cf2565b82800160010185558215611cf2579182015b82811115611cf1578251825591602001919060010190611cd6565b5b509050611cff9190611dcc565b5090565b828054600181600116156101000203166002900490600052602060002090601f016020900481019282601f10611d4457805160ff1916838001178555611d72565b82800160010185558215611d72579182015b82811115611d71578251825591602001919060010190611d56565b5b509050611d7f9190611dcc565b5090565b6040518060400160405280606081526020016000151581525090565b6040518060200160405280606081525090565b604051806040016040528060608152602001606081525090565b611dee91905b80821115611dea576000816000905550600101611dd2565b5090565b90565b600081359050611e00816129ac565b92915050565b600081359050611e15816129c3565b92915050565b600081359050611e2a816129da565b92915050565b60008083601f840112611e4257600080fd5b8235905067ffffffffffffffff811115611e5b57600080fd5b602083019150836001820283011115611e7357600080fd5b9250929050565b600082601f830112611e8b57600080fd5b8135611e9e611e99826127d4565b6127a7565b91508082526020830160208301858383011115611eba57600080fd5b611ec5838284612959565b50505092915050565b600081359050611edd816129f1565b92915050565b600081359050611ef281612a08565b92915050565b600060208284031215611f0a57600080fd5b6000611f1884828501611df1565b91505092915050565b600060208284031215611f3357600080fd5b6000611f4184828501611e06565b91505092915050565b600060208284031215611f5c57600080fd5b6000611f6a84828501611e1b565b91505092915050565b60008060008060808587031215611f8957600080fd5b6000611f9787828801611e1b565b9450506020611fa887828801611e06565b935050604085013567ffffffffffffffff811115611fc557600080fd5b611fd187828801611e7a565b925050606085013567ffffffffffffffff811115611fee57600080fd5b611ffa87828801611e7a565b91505092959194509250565b60008060006060848603121561201b57600080fd5b600061202986828701611e1b565b935050602061203a86828701611ece565b925050604061204b86828701611e1b565b9150509250925092565b6000806000806060858703121561206b57600080fd5b600061207987828801611e1b565b945050602061208a87828801611ece565b935050604085013567ffffffffffffffff8111156120a757600080fd5b6120b387828801611e30565b925092505092959194509250565b6000806000606084860312156120d657600080fd5b60006120e486828701611e1b565b93505060206120f586828701611ece565b925050604084013567ffffffffffffffff81111561211257600080fd5b61211e86828701611e7a565b9150509250925092565b600080600080600060a0868803121561214057600080fd5b600061214e88828901611e1b565b955050602061215f88828901611ee3565b945050604086013567ffffffffffffffff81111561217c57600080fd5b61218888828901611e7a565b935050606086013567ffffffffffffffff8111156121a557600080fd5b6121b188828901611e7a565b92505060806121c288828901611df1565b9150509295509295909350565b600080604083850312156121e257600080fd5b600083013567ffffffffffffffff8111156121fc57600080fd5b61220885828601611e7a565b925050602061221985828601611df1565b9150509250929050565b600061222f8383612267565b60208301905092915050565b600061224783836123b6565b60208301905092915050565b600061225f8383612524565b905092915050565b612270816128d8565b82525050565b600061228182612830565b61228b8185612883565b935061229683612800565b8060005b838110156122c75781516122ae8882612223565b97506122b98361285c565b92505060018101905061229a565b5085935050505092915050565b60006122df8261283b565b6122e98185612894565b93506122f483612810565b8060005b8381101561232557815161230c888261223b565b975061231783612869565b9250506001810190506122f8565b5085935050505092915050565b600061233d82612846565b61234781856128a5565b93508360208202850161235985612820565b8060005b8581101561239557848403895281516123768582612253565b945061238183612876565b925060208a0199505060018101905061235d565b50829750879550505050505092915050565b6123b0816128fc565b82525050565b6123bf81612908565b82525050565b60006123d082612851565b6123da81856128b6565b93506123ea818560208601612968565b6123f38161299b565b840191505092915050565b600061240b601f836128c7565b91507f596f7520617265206e6f74206f776e6572206f66207468697320746f6b656e006000830152602082019050919050565b600061244b6013836128c7565b91507f596f7520617265206e6f7420616c6c6f776564000000000000000000000000006000830152602082019050919050565b600061248b6021836128c7565b91507f596f752063616e6e6f742073656e6420746f6b656e20746f20796f756573656c60008301527f66000000000000000000000000000000000000000000000000000000000000006020830152604082019050919050565b60006124f16017836128c7565b91507f596f7520617265206e6f74206120617574686f726974790000000000000000006000830152602082019050919050565b600060c08301600083015161253c600086018261265f565b50602083015161254f602086018261266e565b506040830151848203604086015261256782826123c5565b9150506060830151848203606086015261258182826123c5565b91505060808301516125966080860182612267565b5060a08301516125a960a08601826123b6565b508091505092915050565b600060408301600083015184820360008601526125d182826123c5565b91505060208301516125e660208601826123a7565b508091505092915050565b6000604083016000830151848203600086015261260e82826123c5565b9150506020830151848203602086015261262882826123c5565b9150508091505092915050565b600060208301600083015184820360008601526126528282612332565b9150508091505092915050565b61266881612932565b82525050565b6126778161293c565b82525050565b600060208201905081810360008301526126978184612276565b905092915050565b600060208201905081810360008301526126b981846122d4565b905092915050565b600060208201905081810360008301526126da816123fe565b9050919050565b600060208201905081810360008301526126fa8161243e565b9050919050565b6000602082019050818103600083015261271a8161247e565b9050919050565b6000602082019050818103600083015261273a816124e4565b9050919050565b6000602082019050818103600083015261275b81846125b4565b905092915050565b6000602082019050818103600083015261277d81846125f1565b905092915050565b6000602082019050818103600083015261279f8184612635565b905092915050565b6000604051905081810181811067ffffffffffffffff821117156127ca57600080fd5b8060405250919050565b600067ffffffffffffffff8211156127eb57600080fd5b601f19601f8301169050602081019050919050565b6000819050602082019050919050565b6000819050602082019050919050565b6000819050602082019050919050565b600081519050919050565b600081519050919050565b600081519050919050565b600081519050919050565b6000602082019050919050565b6000602082019050919050565b6000602082019050919050565b600082825260208201905092915050565b600082825260208201905092915050565b600082825260208201905092915050565b600082825260208201905092915050565b600082825260208201905092915050565b60006128e382612912565b9050919050565b60006128f582612912565b9050919050565b60008115159050919050565b6000819050919050565b600073ffffffffffffffffffffffffffffffffffffffff82169050919050565b6000819050919050565b600063ffffffff82169050919050565b600060ff82169050919050565b82818337600083830152505050565b60005b8381101561298657808201518184015260208101905061296b565b83811115612995576000848401525b50505050565b6000601f19601f8301169050919050565b6129b5816128d8565b81146129c057600080fd5b50565b6129cc816128ea565b81146129d757600080fd5b50565b6129e381612908565b81146129ee57600080fd5b50565b6129fa81612932565b8114612a0557600080fd5b50565b612a118161294c565b8114612a1c57600080fd5b5056fea365627a7a723158205da6691187b4f52034a3fff921b9677c11c686261a39179dea0605435391cf526c6578706572696d656e74616cf564736f6c634300050c0040",
  "source": "pragma solidity ^0.5.0;\r\npragma experimental ABIEncoderV2;\r\nimport \"./SafeMath.sol\";\r\n\r\n/**\r\n* @title paardarshak\r\n* @author Abhishek Vispute\r\n*/\r\ncontract paardarshak {\r\n   using SafeMath for uint256;\r\n    address owner;\r\n  \r\n     modifier onlyowner\r\n     {\r\n         require(msg.sender==owner,\"You are not allowed\");\r\n         _;\r\n     }\r\n   \r\n   bytes32 d;\r\n   \r\n     struct fundinfo {\r\n       string name;\r\n       string description;\r\n   }\r\n\r\n   fundinfo f;\r\n   struct SingleInstanceOfHistory {\r\n       uint256 value;\r\n       uint32 typeOfOwner;\r\n       string nameOfOwner;\r\n       string purpose;\r\n       address _owner;\r\n       bytes32 childtoken;\r\n   }    \r\n\r\n   struct token {\r\n       \r\n       SingleInstanceOfHistory []  CompleteHistoryOfToken  ;\r\n      \r\n   }\r\n   mapping (bytes32 => token) donations;\r\n   bytes32 [] tokenkeys;\r\n\r\n    // this thing can be offloaed to centrlized database, its ineffcient to use it on blockchain\r\n   struct authority{\r\n       string name;\r\n       bool status;\r\n   }\r\n   mapping (address => authority) AuthoritiesNames;\r\n   address [] listedAuthorities;\r\n\r\n    constructor(string memory _fname, string memory _fdesc, address _owner)public{\r\n        owner = _owner;\r\n        AuthoritiesNames[owner].name = 'Root';\r\n        AuthoritiesNames[owner].status = true;\r\n        listedAuthorities.push(owner);\r\n        f.name = _fname;\r\n        f.description = _fdesc;\r\n        \r\n    }\r\n   \r\n\r\n   \r\n   function createToken(bytes32 _key, uint256 _value, string memory _name) public\r\n   {\r\n      //we have to add oracle here to ckeck if payment is done, if not added anyone can call this function and can create their token\r\n      \r\n       donations[_key].CompleteHistoryOfToken.push(SingleInstanceOfHistory(\r\n            _value,0,_name,'root',owner,d\r\n        ));\r\n  \r\n       tokenkeys.push(_key);\r\n    \r\n   }\r\n   \r\n  function breakToken(bytes32 _key,uint256 _valueofparenttoken, bytes32 _childkey) public\r\n  {\r\n       \r\n       uint256 temp = donations[_key].CompleteHistoryOfToken.length-1;\r\n       \r\n       require(donations[_key].CompleteHistoryOfToken[temp]._owner==msg.sender, \"You are not owner of this token\");\r\n       require(donations[_key].CompleteHistoryOfToken[temp].value> _valueofparenttoken);\r\n       uint256 valueofchildtoken = donations[_key].CompleteHistoryOfToken[temp].value - _valueofparenttoken;\r\n       \r\n        donations[_key].CompleteHistoryOfToken.push(SingleInstanceOfHistory(\r\n           _valueofparenttoken,\r\n            1,\r\n            donations[_key].CompleteHistoryOfToken[temp].nameOfOwner, \r\n            donations[_key].CompleteHistoryOfToken[temp].purpose,\r\n            donations[_key].CompleteHistoryOfToken[temp]._owner,\r\n            _childkey ));\r\n       \r\n        donations[_childkey].CompleteHistoryOfToken.push(SingleInstanceOfHistory(\r\n            valueofchildtoken,\r\n            1,\r\n            donations[_key].CompleteHistoryOfToken[temp].nameOfOwner, \r\n            donations[_key].CompleteHistoryOfToken[temp].purpose,\r\n            donations[_key].CompleteHistoryOfToken[temp]._owner,\r\n            d\r\n        ));\r\n  \r\n       tokenkeys.push(_childkey);\r\n       \r\n  }\r\n   \r\n   function transferToken(bytes32 _key, uint8 _typeOfOwner, string memory _nextOwnername, string memory _purpose, address _nextOwner) public\r\n   {\r\n       require(donations[_key].CompleteHistoryOfToken[donations[_key].CompleteHistoryOfToken.length-1]._owner==msg.sender, \"You are not owner of this token\");\r\n       require(_nextOwner !=msg.sender, \"You cannot send token to youeself\");\r\n       uint256 temp = donations[_key].CompleteHistoryOfToken.length-1;\r\n       donations[_key].CompleteHistoryOfToken.push(SingleInstanceOfHistory(\r\n           donations[_key].CompleteHistoryOfToken[temp].value,\r\n            _typeOfOwner, _nextOwnername, _purpose,_nextOwner, donations[_key].CompleteHistoryOfToken[temp].childtoken ));\r\n       //emit TokensSent(msg.sender, _to, _amount);\r\n   }\r\n   \r\n    function donate(bytes32 _key, uint256 _value, string calldata _name) external payable{\r\n         donations[_key].CompleteHistoryOfToken.push(SingleInstanceOfHistory(\r\n            _value,0,_name,'root',owner,d\r\n        ));\r\n  \r\n        tokenkeys.push(_key);\r\n       \r\n    }\r\n\r\n//      function donate() external payable{\r\n        \r\n       \r\n//   }\r\n   \r\n   function paymentToLeaf(bytes32 _key, address payable _add, string memory _name, string memory _purpose) public payable{\r\n        require(donations[_key].CompleteHistoryOfToken[donations[_key].CompleteHistoryOfToken.length-1]._owner==msg.sender, \"You are not owner of this token\");\r\n        \r\n       _add.transfer(msg.value);\r\n        uint256 temp = donations[_key].CompleteHistoryOfToken.length-1;\r\n        donations[_key].CompleteHistoryOfToken.push(SingleInstanceOfHistory(\r\n            msg.value,2,_name,_purpose,_add, donations[_key].CompleteHistoryOfToken[temp].childtoken\r\n        ));\r\n   } \r\n   \r\n   function getSingleTokenDetails(bytes32 _key) public view returns (token memory)\r\n   {\r\n       return donations[_key];\r\n   }\r\n\r\n   function getAllTokenKeys() public view returns (bytes32 [] memory)\r\n   {\r\n       return tokenkeys;\r\n   }\r\n   \r\n   function addAuthority(string memory _childname, address _add) public\r\n   {\r\n       require(AuthoritiesNames[msg.sender].status == true, \"You are not a authority\");\r\n       AuthoritiesNames[_add].name = _childname;\r\n       AuthoritiesNames[_add].status = true;\r\n       listedAuthorities.push(_add);\r\n       \r\n   }\r\n   \r\n    \r\n   function getSingleAuthDetails(address _add) public view returns (authority memory)\r\n   {\r\n       return AuthoritiesNames[_add];\r\n   }\r\n\r\n   function getAllListedAuthAddress() public view returns (address [] memory)\r\n   {\r\n       return listedAuthorities;\r\n   }\r\n   \r\n   \r\n   function getFundInfo() public view returns (fundinfo memory)\r\n   {\r\n       return f;\r\n   }\r\n\r\n    function destroySmartContract(address payable _to) public onlyowner {\r\n    \r\n    selfdestruct(_to);\r\n    }\r\n \r\n}",
  "sourcePath": "C:\\Users\\ASUS\\Desktop\\paaradarshak-chainrunner\\contracts\\paardarshak.sol",
  "compiler": {
    "name": "solc",
    "version": "0.5.12+commit.7709ece9.Emscripten.clang"
  },
  "schemaVersion": "3.0.20",
  "updatedAt": "2020-06-27T12:36:14.770Z",
  "devdoc": {
    "author": "Abhishek Vispute",
    "methods": {},
    "title": "paardarshak"
  },
  "userdoc": {
    "methods": {}
  }
}