{
  "contractName": "paardarshak",
  "abi": [
    {
      "inputs": [],
      "payable": false,
      "stateMutability": "nonpayable",
      "type": "constructor"
    },
    {
      "constant": false,
      "inputs": [
        {
          "internalType": "bytes32",
          "name": "_key",
          "type": "bytes32"
        },
        {
          "internalType": "uint256",
          "name": "_value",
          "type": "uint256"
        },
        {
          "internalType": "string",
          "name": "_name",
          "type": "string"
        }
      ],
      "name": "createToken",
      "outputs": [],
      "payable": false,
      "stateMutability": "nonpayable",
      "type": "function"
    },
    {
      "constant": false,
      "inputs": [
        {
          "internalType": "bytes32",
          "name": "_key",
          "type": "bytes32"
        },
        {
          "internalType": "uint256",
          "name": "_valueofparenttoken",
          "type": "uint256"
        },
        {
          "internalType": "bytes32",
          "name": "_childkey",
          "type": "bytes32"
        }
      ],
      "name": "breakToken",
      "outputs": [],
      "payable": false,
      "stateMutability": "nonpayable",
      "type": "function"
    },
    {
      "constant": false,
      "inputs": [
        {
          "internalType": "bytes32",
          "name": "_key",
          "type": "bytes32"
        },
        {
          "internalType": "uint8",
          "name": "_typeOfOwner",
          "type": "uint8"
        },
        {
          "internalType": "string",
          "name": "_nextOwnername",
          "type": "string"
        },
        {
          "internalType": "string",
          "name": "_purpose",
          "type": "string"
        },
        {
          "internalType": "address",
          "name": "_nextOwner",
          "type": "address"
        }
      ],
      "name": "transferToken",
      "outputs": [],
      "payable": false,
      "stateMutability": "nonpayable",
      "type": "function"
    },
    {
      "constant": false,
      "inputs": [],
      "name": "donate",
      "outputs": [],
      "payable": true,
      "stateMutability": "payable",
      "type": "function"
    },
    {
      "constant": false,
      "inputs": [
        {
          "internalType": "bytes32",
          "name": "_key",
          "type": "bytes32"
        },
        {
          "internalType": "address payable",
          "name": "_add",
          "type": "address"
        },
        {
          "internalType": "string",
          "name": "_name",
          "type": "string"
        },
        {
          "internalType": "string",
          "name": "_purpose",
          "type": "string"
        }
      ],
      "name": "paymentToLeaf",
      "outputs": [],
      "payable": true,
      "stateMutability": "payable",
      "type": "function"
    },
    {
      "constant": true,
      "inputs": [
        {
          "internalType": "bytes32",
          "name": "_key",
          "type": "bytes32"
        }
      ],
      "name": "getSingleTokenDetails",
      "outputs": [
        {
          "components": [
            {
              "components": [
                {
                  "internalType": "uint256",
                  "name": "value",
                  "type": "uint256"
                },
                {
                  "internalType": "uint32",
                  "name": "typeOfOwner",
                  "type": "uint32"
                },
                {
                  "internalType": "string",
                  "name": "nameOfOwner",
                  "type": "string"
                },
                {
                  "internalType": "string",
                  "name": "purpose",
                  "type": "string"
                },
                {
                  "internalType": "address",
                  "name": "_owner",
                  "type": "address"
                },
                {
                  "internalType": "bytes32",
                  "name": "childtoken",
                  "type": "bytes32"
                }
              ],
              "internalType": "struct paardarshak.SingleInstanceOfHistory[]",
              "name": "CompleteHistoryOfToken",
              "type": "tuple[]"
            }
          ],
          "internalType": "struct paardarshak.token",
          "name": "",
          "type": "tuple"
        }
      ],
      "payable": false,
      "stateMutability": "view",
      "type": "function"
    },
    {
      "constant": true,
      "inputs": [],
      "name": "getAllTokenKeys",
      "outputs": [
        {
          "internalType": "bytes32[]",
          "name": "",
          "type": "bytes32[]"
        }
      ],
      "payable": false,
      "stateMutability": "view",
      "type": "function"
    },
    {
      "constant": false,
      "inputs": [
        {
          "internalType": "string",
          "name": "_childname",
          "type": "string"
        },
        {
          "internalType": "address",
          "name": "_add",
          "type": "address"
        }
      ],
      "name": "addAuthority",
      "outputs": [],
      "payable": false,
      "stateMutability": "nonpayable",
      "type": "function"
    },
    {
      "constant": true,
      "inputs": [
        {
          "internalType": "address",
          "name": "_add",
          "type": "address"
        }
      ],
      "name": "getSingleAuthDetails",
      "outputs": [
        {
          "components": [
            {
              "internalType": "string",
              "name": "name",
              "type": "string"
            },
            {
              "internalType": "bool",
              "name": "status",
              "type": "bool"
            }
          ],
          "internalType": "struct paardarshak.authority",
          "name": "",
          "type": "tuple"
        }
      ],
      "payable": false,
      "stateMutability": "view",
      "type": "function"
    },
    {
      "constant": true,
      "inputs": [],
      "name": "getAllListedAuthAddress",
      "outputs": [
        {
          "internalType": "address[]",
          "name": "",
          "type": "address[]"
        }
      ],
      "payable": false,
      "stateMutability": "view",
      "type": "function"
    },
    {
      "constant": false,
      "inputs": [
        {
          "internalType": "address payable",
          "name": "_to",
          "type": "address"
        }
      ],
      "name": "destroySmartContract",
      "outputs": [],
      "payable": false,
      "stateMutability": "nonpayable",
      "type": "function"
    }
  ],
  "bytecode": "0x60806040523480156200001157600080fd5b50336000806101000a81548173ffffffffffffffffffffffffffffffffffffffff021916908373ffffffffffffffffffffffffffffffffffffffff1602179055506040518060400160405280600481526020017f526f6f7400000000000000000000000000000000000000000000000000000000815250600460008060009054906101000a900473ffffffffffffffffffffffffffffffffffffffff1673ffffffffffffffffffffffffffffffffffffffff1673ffffffffffffffffffffffffffffffffffffffff1681526020019081526020016000206000019080519060200190620001009291906200020a565b506001600460008060009054906101000a900473ffffffffffffffffffffffffffffffffffffffff1673ffffffffffffffffffffffffffffffffffffffff1673ffffffffffffffffffffffffffffffffffffffff16815260200190815260200160002060010160006101000a81548160ff02191690831515021790555060056000809054906101000a900473ffffffffffffffffffffffffffffffffffffffff1690806001815401808255809150509060018203906000526020600020016000909192909190916101000a81548173ffffffffffffffffffffffffffffffffffffffff021916908373ffffffffffffffffffffffffffffffffffffffff16021790555050620002b9565b828054600181600116156101000203166002900490600052602060002090601f016020900481019282601f106200024d57805160ff19168380011785556200027e565b828001600101855582156200027e579182015b828111156200027d57825182559160200191906001019062000260565b5b5090506200028d919062000291565b5090565b620002b691905b80821115620002b257600081600090555060010162000298565b5090565b90565b61257080620002c96000396000f3fe60806040526004361061009c5760003560e01c80638f3e3c35116100645780638f3e3c351461018257806393a06227146101bf578063964d8205146101db578063bb79484414610206578063eb9d03ce1461022f578063ed88c68e1461025a5761009c565b80631fbabfce146100a157806339df43ff146100ca57806365943e50146100f357806371ccadce1461011c57806375de3e7514610145575b600080fd5b3480156100ad57600080fd5b506100c860048036036100c39190810190611d43565b610264565b005b3480156100d657600080fd5b506100f160048036036100ec9190810190611b01565b610416565b005b3480156100ff57600080fd5b5061011a60048036036101159190810190611be6565b6104be565b005b34801561012857600080fd5b50610143600480360361013e9190810190611c9c565b610cab565b005b34801561015157600080fd5b5061016c60048036036101679190810190611ad8565b610fcf565b6040516101799190612271565b60405180910390f35b34801561018e57600080fd5b506101a960048036036101a49190810190611b2a565b6110e5565b6040516101b69190612293565b60405180910390f35b6101d960048036036101d49190810190611b53565b611345565b005b3480156101e757600080fd5b506101f061160c565b6040516101fd91906121cf565b60405180910390f35b34801561021257600080fd5b5061022d60048036036102289190810190611c35565b611664565b005b34801561023b57600080fd5b50610244611837565b60405161025191906121ad565b60405180910390f35b6102626118c5565b005b60011515600460003373ffffffffffffffffffffffffffffffffffffffff1673ffffffffffffffffffffffffffffffffffffffff16815260200190815260200160002060010160009054906101000a900460ff161515146102fa576040517f08c379a00000000000000000000000000000000000000000000000000000000081526004016102f190612251565b60405180910390fd5b81600460008373ffffffffffffffffffffffffffffffffffffffff1673ffffffffffffffffffffffffffffffffffffffff16815260200190815260200160002060000190805190602001906103509291906118c7565b506001600460008373ffffffffffffffffffffffffffffffffffffffff1673ffffffffffffffffffffffffffffffffffffffff16815260200190815260200160002060010160006101000a81548160ff02191690831515021790555060058190806001815401808255809150509060018203906000526020600020016000909192909190916101000a81548173ffffffffffffffffffffffffffffffffffffffff021916908373ffffffffffffffffffffffffffffffffffffffff160217905550505050565b6000809054906101000a900473ffffffffffffffffffffffffffffffffffffffff1673ffffffffffffffffffffffffffffffffffffffff163373ffffffffffffffffffffffffffffffffffffffff16146104a5576040517f08c379a000000000000000000000000000000000000000000000000000000000815260040161049c90612211565b60405180910390fd5b8073ffffffffffffffffffffffffffffffffffffffff16ff5b6000600160026000868152602001908152602001600020600001805490500390503373ffffffffffffffffffffffffffffffffffffffff1660026000868152602001908152602001600020600001828154811061051757fe5b906000526020600020906006020160040160009054906101000a900473ffffffffffffffffffffffffffffffffffffffff1673ffffffffffffffffffffffffffffffffffffffff161461059f576040517f08c379a0000000000000000000000000000000000000000000000000000000008152600401610596906121f1565b60405180910390fd5b826002600086815260200190815260200160002060000182815481106105c157fe5b906000526020600020906006020160000154116105dd57600080fd5b60008360026000878152602001908152602001600020600001838154811061060157fe5b906000526020600020906006020160000154039050600260008681526020019081526020016000206000016040518060c00160405280868152602001600163ffffffff16815260200160026000898152602001908152602001600020600001858154811061066b57fe5b90600052602060002090600602016002018054600181600116156101000203166002900480601f0160208091040260200160405190810160405280929190818152602001828054600181600116156101000203166002900480156107105780601f106106e557610100808354040283529160200191610710565b820191906000526020600020905b8154815290600101906020018083116106f357829003601f168201915b5050505050815260200160026000898152602001908152602001600020600001858154811061073b57fe5b90600052602060002090600602016003018054600181600116156101000203166002900480601f0160208091040260200160405190810160405280929190818152602001828054600181600116156101000203166002900480156107e05780601f106107b5576101008083540402835291602001916107e0565b820191906000526020600020905b8154815290600101906020018083116107c357829003601f168201915b5050505050815260200160026000898152602001908152602001600020600001858154811061080b57fe5b906000526020600020906006020160040160009054906101000a900473ffffffffffffffffffffffffffffffffffffffff1673ffffffffffffffffffffffffffffffffffffffff16815260200185815250908060018154018082558091505090600182039060005260206000209060060201600090919290919091506000820151816000015560208201518160010160006101000a81548163ffffffff021916908363ffffffff16021790555060408201518160020190805190602001906108d4929190611947565b5060608201518160030190805190602001906108f1929190611947565b5060808201518160040160006101000a81548173ffffffffffffffffffffffffffffffffffffffff021916908373ffffffffffffffffffffffffffffffffffffffff16021790555060a08201518160050155505050600260008481526020019081526020016000206000016040518060c00160405280838152602001600163ffffffff16815260200160026000898152602001908152602001600020600001858154811061099b57fe5b90600052602060002090600602016002018054600181600116156101000203166002900480601f016020809104026020016040519081016040528092919081815260200182805460018160011615610100020316600290048015610a405780601f10610a1557610100808354040283529160200191610a40565b820191906000526020600020905b815481529060010190602001808311610a2357829003601f168201915b50505050508152602001600260008981526020019081526020016000206000018581548110610a6b57fe5b90600052602060002090600602016003018054600181600116156101000203166002900480601f016020809104026020016040519081016040528092919081815260200182805460018160011615610100020316600290048015610b105780601f10610ae557610100808354040283529160200191610b10565b820191906000526020600020905b815481529060010190602001808311610af357829003601f168201915b50505050508152602001600260008981526020019081526020016000206000018581548110610b3b57fe5b906000526020600020906006020160040160009054906101000a900473ffffffffffffffffffffffffffffffffffffffff1673ffffffffffffffffffffffffffffffffffffffff168152602001600154815250908060018154018082558091505090600182039060005260206000209060060201600090919290919091506000820151816000015560208201518160010160006101000a81548163ffffffff021916908363ffffffff1602179055506040820151816002019080519060200190610c06929190611947565b506060820151816003019080519060200190610c23929190611947565b5060808201518160040160006101000a81548173ffffffffffffffffffffffffffffffffffffffff021916908373ffffffffffffffffffffffffffffffffffffffff16021790555060a0820151816005015550505060038390806001815401808255809150509060018203906000526020600020016000909192909190915055505050505050565b3373ffffffffffffffffffffffffffffffffffffffff1660026000878152602001908152602001600020600001600160026000898152602001908152602001600020600001805490500381548110610cff57fe5b906000526020600020906006020160040160009054906101000a900473ffffffffffffffffffffffffffffffffffffffff1673ffffffffffffffffffffffffffffffffffffffff1614610d87576040517f08c379a0000000000000000000000000000000000000000000000000000000008152600401610d7e906121f1565b60405180910390fd5b3373ffffffffffffffffffffffffffffffffffffffff168173ffffffffffffffffffffffffffffffffffffffff161415610df6576040517f08c379a0000000000000000000000000000000000000000000000000000000008152600401610ded90612231565b60405180910390fd5b600060016002600088815260200190815260200160002060000180549050039050600260008781526020019081526020016000206000016040518060c00160405280600260008a81526020019081526020016000206000018481548110610e5957fe5b90600052602060002090600602016000015481526020018760ff1663ffffffff1681526020018681526020018581526020018473ffffffffffffffffffffffffffffffffffffffff168152602001600260008a81526020019081526020016000206000018481548110610ec857fe5b906000526020600020906006020160050154815250908060018154018082558091505090600182039060005260206000209060060201600090919290919091506000820151816000015560208201518160010160006101000a81548163ffffffff021916908363ffffffff1602179055506040820151816002019080519060200190610f55929190611947565b506060820151816003019080519060200190610f72929190611947565b5060808201518160040160006101000a81548173ffffffffffffffffffffffffffffffffffffffff021916908373ffffffffffffffffffffffffffffffffffffffff16021790555060a08201518160050155505050505050505050565b610fd76119c7565b600460008373ffffffffffffffffffffffffffffffffffffffff1673ffffffffffffffffffffffffffffffffffffffff168152602001908152602001600020604051806040016040529081600082018054600181600116156101000203166002900480601f0160208091040260200160405190810160405280929190818152602001828054600181600116156101000203166002900480156110ba5780601f1061108f576101008083540402835291602001916110ba565b820191906000526020600020905b81548152906001019060200180831161109d57829003601f168201915b505050505081526020016001820160009054906101000a900460ff1615151515815250509050919050565b6110ed6119e3565b6002600083815260200190815260200160002060405180602001604052908160008201805480602002602001604051908101604052809291908181526020016000905b8282101561133657838290600052602060002090600602016040518060c0016040529081600082015481526020016001820160009054906101000a900463ffffffff1663ffffffff1663ffffffff168152602001600282018054600181600116156101000203166002900480601f01602080910402602001604051908101604052809291908181526020018280546001816001161561010002031660029004801561121c5780601f106111f15761010080835404028352916020019161121c565b820191906000526020600020905b8154815290600101906020018083116111ff57829003601f168201915b50505050508152602001600382018054600181600116156101000203166002900480601f0160208091040260200160405190810160405280929190818152602001828054600181600116156101000203166002900480156112be5780601f10611293576101008083540402835291602001916112be565b820191906000526020600020905b8154815290600101906020018083116112a157829003601f168201915b505050505081526020016004820160009054906101000a900473ffffffffffffffffffffffffffffffffffffffff1673ffffffffffffffffffffffffffffffffffffffff1673ffffffffffffffffffffffffffffffffffffffff16815260200160058201548152505081526020019060010190611130565b50505050815250509050919050565b3373ffffffffffffffffffffffffffffffffffffffff166002600086815260200190815260200160002060000160016002600088815260200190815260200160002060000180549050038154811061139957fe5b906000526020600020906006020160040160009054906101000a900473ffffffffffffffffffffffffffffffffffffffff1673ffffffffffffffffffffffffffffffffffffffff1614611421576040517f08c379a0000000000000000000000000000000000000000000000000000000008152600401611418906121f1565b60405180910390fd5b8273ffffffffffffffffffffffffffffffffffffffff166108fc349081150290604051600060405180830381858888f19350505050158015611467573d6000803e3d6000fd5b50600060016002600087815260200190815260200160002060000180549050039050600260008681526020019081526020016000206000016040518060c00160405280348152602001600263ffffffff1681526020018581526020018481526020018673ffffffffffffffffffffffffffffffffffffffff16815260200160026000898152602001908152602001600020600001848154811061150657fe5b906000526020600020906006020160050154815250908060018154018082558091505090600182039060005260206000209060060201600090919290919091506000820151816000015560208201518160010160006101000a81548163ffffffff021916908363ffffffff1602179055506040820151816002019080519060200190611593929190611947565b5060608201518160030190805190602001906115b0929190611947565b5060808201518160040160006101000a81548173ffffffffffffffffffffffffffffffffffffffff021916908373ffffffffffffffffffffffffffffffffffffffff16021790555060a082015181600501555050505050505050565b6060600380548060200260200160405190810160405280929190818152602001828054801561165a57602002820191906000526020600020905b815481526020019060010190808311611646575b5050505050905090565b600260008481526020019081526020016000206000016040518060c00160405280848152602001600063ffffffff1681526020018381526020016040518060400160405280600481526020017f726f6f740000000000000000000000000000000000000000000000000000000081525081526020016000809054906101000a900473ffffffffffffffffffffffffffffffffffffffff1673ffffffffffffffffffffffffffffffffffffffff168152602001600154815250908060018154018082558091505090600182039060005260206000209060060201600090919290919091506000820151816000015560208201518160010160006101000a81548163ffffffff021916908363ffffffff1602179055506040820151816002019080519060200190611794929190611947565b5060608201518160030190805190602001906117b1929190611947565b5060808201518160040160006101000a81548173ffffffffffffffffffffffffffffffffffffffff021916908373ffffffffffffffffffffffffffffffffffffffff16021790555060a082015181600501555050506003839080600181540180825580915050906001820390600052602060002001600090919290919091505550505050565b606060058054806020026020016040519081016040528092919081815260200182805480156118bb57602002820191906000526020600020905b8160009054906101000a900473ffffffffffffffffffffffffffffffffffffffff1673ffffffffffffffffffffffffffffffffffffffff1681526020019060010190808311611871575b5050505050905090565b565b828054600181600116156101000203166002900490600052602060002090601f016020900481019282601f1061190857805160ff1916838001178555611936565b82800160010185558215611936579182015b8281111561193557825182559160200191906001019061191a565b5b50905061194391906119f6565b5090565b828054600181600116156101000203166002900490600052602060002090601f016020900481019282601f1061198857805160ff19168380011785556119b6565b828001600101855582156119b6579182015b828111156119b557825182559160200191906001019061199a565b5b5090506119c391906119f6565b5090565b6040518060400160405280606081526020016000151581525090565b6040518060200160405280606081525090565b611a1891905b80821115611a145760008160009055506001016119fc565b5090565b90565b600081359050611a2a816124ba565b92915050565b600081359050611a3f816124d1565b92915050565b600081359050611a54816124e8565b92915050565b600082601f830112611a6b57600080fd5b8135611a7e611a79826122e2565b6122b5565b91508082526020830160208301858383011115611a9a57600080fd5b611aa5838284612467565b50505092915050565b600081359050611abd816124ff565b92915050565b600081359050611ad281612516565b92915050565b600060208284031215611aea57600080fd5b6000611af884828501611a1b565b91505092915050565b600060208284031215611b1357600080fd5b6000611b2184828501611a30565b91505092915050565b600060208284031215611b3c57600080fd5b6000611b4a84828501611a45565b91505092915050565b60008060008060808587031215611b6957600080fd5b6000611b7787828801611a45565b9450506020611b8887828801611a30565b935050604085013567ffffffffffffffff811115611ba557600080fd5b611bb187828801611a5a565b925050606085013567ffffffffffffffff811115611bce57600080fd5b611bda87828801611a5a565b91505092959194509250565b600080600060608486031215611bfb57600080fd5b6000611c0986828701611a45565b9350506020611c1a86828701611aae565b9250506040611c2b86828701611a45565b9150509250925092565b600080600060608486031215611c4a57600080fd5b6000611c5886828701611a45565b9350506020611c6986828701611aae565b925050604084013567ffffffffffffffff811115611c8657600080fd5b611c9286828701611a5a565b9150509250925092565b600080600080600060a08688031215611cb457600080fd5b6000611cc288828901611a45565b9550506020611cd388828901611ac3565b945050604086013567ffffffffffffffff811115611cf057600080fd5b611cfc88828901611a5a565b935050606086013567ffffffffffffffff811115611d1957600080fd5b611d2588828901611a5a565b9250506080611d3688828901611a1b565b9150509295509295909350565b60008060408385031215611d5657600080fd5b600083013567ffffffffffffffff811115611d7057600080fd5b611d7c85828601611a5a565b9250506020611d8d85828601611a1b565b9150509250929050565b6000611da38383611ddb565b60208301905092915050565b6000611dbb8383611f2a565b60208301905092915050565b6000611dd38383612098565b905092915050565b611de4816123e6565b82525050565b6000611df58261233e565b611dff8185612391565b9350611e0a8361230e565b8060005b83811015611e3b578151611e228882611d97565b9750611e2d8361236a565b925050600181019050611e0e565b5085935050505092915050565b6000611e5382612349565b611e5d81856123a2565b9350611e688361231e565b8060005b83811015611e99578151611e808882611daf565b9750611e8b83612377565b925050600181019050611e6c565b5085935050505092915050565b6000611eb182612354565b611ebb81856123b3565b935083602082028501611ecd8561232e565b8060005b85811015611f095784840389528151611eea8582611dc7565b9450611ef583612384565b925060208a01995050600181019050611ed1565b50829750879550505050505092915050565b611f248161240a565b82525050565b611f3381612416565b82525050565b6000611f448261235f565b611f4e81856123c4565b9350611f5e818560208601612476565b611f67816124a9565b840191505092915050565b6000611f7f601f836123d5565b91507f596f7520617265206e6f74206f776e6572206f66207468697320746f6b656e006000830152602082019050919050565b6000611fbf6013836123d5565b91507f596f7520617265206e6f7420616c6c6f776564000000000000000000000000006000830152602082019050919050565b6000611fff6021836123d5565b91507f596f752063616e6e6f742073656e6420746f6b656e20746f20796f756573656c60008301527f66000000000000000000000000000000000000000000000000000000000000006020830152604082019050919050565b60006120656017836123d5565b91507f596f7520617265206e6f74206120617574686f726974790000000000000000006000830152602082019050919050565b600060c0830160008301516120b0600086018261218f565b5060208301516120c3602086018261219e565b50604083015184820360408601526120db8282611f39565b915050606083015184820360608601526120f58282611f39565b915050608083015161210a6080860182611ddb565b5060a083015161211d60a0860182611f2a565b508091505092915050565b600060408301600083015184820360008601526121458282611f39565b915050602083015161215a6020860182611f1b565b508091505092915050565b600060208301600083015184820360008601526121828282611ea6565b9150508091505092915050565b61219881612440565b82525050565b6121a78161244a565b82525050565b600060208201905081810360008301526121c78184611dea565b905092915050565b600060208201905081810360008301526121e98184611e48565b905092915050565b6000602082019050818103600083015261220a81611f72565b9050919050565b6000602082019050818103600083015261222a81611fb2565b9050919050565b6000602082019050818103600083015261224a81611ff2565b9050919050565b6000602082019050818103600083015261226a81612058565b9050919050565b6000602082019050818103600083015261228b8184612128565b905092915050565b600060208201905081810360008301526122ad8184612165565b905092915050565b6000604051905081810181811067ffffffffffffffff821117156122d857600080fd5b8060405250919050565b600067ffffffffffffffff8211156122f957600080fd5b601f19601f8301169050602081019050919050565b6000819050602082019050919050565b6000819050602082019050919050565b6000819050602082019050919050565b600081519050919050565b600081519050919050565b600081519050919050565b600081519050919050565b6000602082019050919050565b6000602082019050919050565b6000602082019050919050565b600082825260208201905092915050565b600082825260208201905092915050565b600082825260208201905092915050565b600082825260208201905092915050565b600082825260208201905092915050565b60006123f182612420565b9050919050565b600061240382612420565b9050919050565b60008115159050919050565b6000819050919050565b600073ffffffffffffffffffffffffffffffffffffffff82169050919050565b6000819050919050565b600063ffffffff82169050919050565b600060ff82169050919050565b82818337600083830152505050565b60005b83811015612494578082015181840152602081019050612479565b838111156124a3576000848401525b50505050565b6000601f19601f8301169050919050565b6124c3816123e6565b81146124ce57600080fd5b50565b6124da816123f8565b81146124e557600080fd5b50565b6124f181612416565b81146124fc57600080fd5b50565b61250881612440565b811461251357600080fd5b50565b61251f8161245a565b811461252a57600080fd5b5056fea365627a7a723158200e74a52c4a4d75985766810f40701101b02c8e84a059e7bdd46ff16b386824e26c6578706572696d656e74616cf564736f6c634300050c0040",
  "source": "pragma solidity ^0.5.0;\r\npragma experimental ABIEncoderV2;\r\nimport \"./SafeMath.sol\";\r\nimport \"./owned.sol\";\r\n/**\r\n* @title paardarshak\r\n* @author Abhishek Vispute\r\n*/\r\ncontract paardarshak is owned{\r\n   using SafeMath for uint256;\r\n   \r\n   bytes32 d;\r\n   \r\n   struct SingleInstanceOfHistory {\r\n       uint256 value;\r\n       uint32 typeOfOwner;\r\n       string nameOfOwner;\r\n       string purpose;\r\n       address _owner;\r\n       bytes32 childtoken;\r\n   }    \r\n\r\n   struct token {\r\n       \r\n       SingleInstanceOfHistory []  CompleteHistoryOfToken  ;\r\n      \r\n   }\r\n   mapping (bytes32 => token) donations;\r\n   bytes32 [] tokenkeys;\r\n\r\n    // this thing can be offloaed to centrlized database, its ineffcient to use it on blockchain\r\n   struct authority{\r\n       string name;\r\n       bool status;\r\n   }\r\n   mapping (address => authority) AuthoritiesNames;\r\n   address [] listedAuthorities;\r\n\r\n    constructor()public{\r\n        AuthoritiesNames[owner].name = 'Root';\r\n        AuthoritiesNames[owner].status = true;\r\n        listedAuthorities.push(owner);\r\n    }\r\n   \r\n\r\n   \r\n   function createToken(bytes32 _key, uint256 _value, string memory _name) public\r\n   {\r\n      //we have to add oracle here to ckeck if payment is done, if not added anyone can call this function and can create their token\r\n      \r\n       donations[_key].CompleteHistoryOfToken.push(SingleInstanceOfHistory(\r\n            _value,0,_name,'root',owner,d\r\n        ));\r\n  \r\n       tokenkeys.push(_key);\r\n    \r\n   }\r\n   \r\n  function breakToken(bytes32 _key,uint256 _valueofparenttoken, bytes32 _childkey) public\r\n  {\r\n       \r\n       uint256 temp = donations[_key].CompleteHistoryOfToken.length-1;\r\n       \r\n       require(donations[_key].CompleteHistoryOfToken[temp]._owner==msg.sender, \"You are not owner of this token\");\r\n       require(donations[_key].CompleteHistoryOfToken[temp].value> _valueofparenttoken);\r\n       uint256 valueofchildtoken = donations[_key].CompleteHistoryOfToken[temp].value - _valueofparenttoken;\r\n       \r\n        donations[_key].CompleteHistoryOfToken.push(SingleInstanceOfHistory(\r\n           _valueofparenttoken,\r\n            1,\r\n            donations[_key].CompleteHistoryOfToken[temp].nameOfOwner, \r\n            donations[_key].CompleteHistoryOfToken[temp].purpose,\r\n            donations[_key].CompleteHistoryOfToken[temp]._owner,\r\n            _childkey ));\r\n       \r\n        donations[_childkey].CompleteHistoryOfToken.push(SingleInstanceOfHistory(\r\n            valueofchildtoken,\r\n            1,\r\n            donations[_key].CompleteHistoryOfToken[temp].nameOfOwner, \r\n            donations[_key].CompleteHistoryOfToken[temp].purpose,\r\n            donations[_key].CompleteHistoryOfToken[temp]._owner,\r\n            d\r\n        ));\r\n  \r\n       tokenkeys.push(_childkey);\r\n       \r\n  }\r\n   \r\n   function transferToken(bytes32 _key, uint8 _typeOfOwner, string memory _nextOwnername, string memory _purpose, address _nextOwner) public\r\n   {\r\n       require(donations[_key].CompleteHistoryOfToken[donations[_key].CompleteHistoryOfToken.length-1]._owner==msg.sender, \"You are not owner of this token\");\r\n       require(_nextOwner !=msg.sender, \"You cannot send token to youeself\");\r\n       uint256 temp = donations[_key].CompleteHistoryOfToken.length-1;\r\n       donations[_key].CompleteHistoryOfToken.push(SingleInstanceOfHistory(\r\n           donations[_key].CompleteHistoryOfToken[temp].value,\r\n            _typeOfOwner, _nextOwnername, _purpose,_nextOwner, donations[_key].CompleteHistoryOfToken[temp].childtoken ));\r\n       //emit TokensSent(msg.sender, _to, _amount);\r\n   }\r\n   \r\n//    function donate(bytes32 _key, uint256 _value, string calldata _name) external payable{\r\n//          donations[_key].CompleteHistoryOfToken.push(SingleInstanceOfHistory(\r\n//             _value,0,_name,'root',owner,d\r\n//         ));\r\n  \r\n//        tokenkeys.push(_key);\r\n       \r\n//    }\r\n\r\n     function donate() external payable{\r\n        \r\n       \r\n   }\r\n   \r\n   function paymentToLeaf(bytes32 _key, address payable _add, string memory _name, string memory _purpose) public payable{\r\n        require(donations[_key].CompleteHistoryOfToken[donations[_key].CompleteHistoryOfToken.length-1]._owner==msg.sender, \"You are not owner of this token\");\r\n        \r\n       _add.transfer(msg.value);\r\n        uint256 temp = donations[_key].CompleteHistoryOfToken.length-1;\r\n        donations[_key].CompleteHistoryOfToken.push(SingleInstanceOfHistory(\r\n            msg.value,2,_name,_purpose,_add, donations[_key].CompleteHistoryOfToken[temp].childtoken\r\n        ));\r\n   } \r\n   \r\n   function getSingleTokenDetails(bytes32 _key) public view returns (token memory)\r\n   {\r\n       return donations[_key];\r\n   }\r\n\r\n   function getAllTokenKeys() public view returns (bytes32 [] memory)\r\n   {\r\n       return tokenkeys;\r\n   }\r\n   \r\n   function addAuthority(string memory _childname, address _add) public\r\n   {\r\n       require(AuthoritiesNames[msg.sender].status == true, \"You are not a authority\");\r\n       AuthoritiesNames[_add].name = _childname;\r\n       AuthoritiesNames[_add].status = true;\r\n       listedAuthorities.push(_add);\r\n       \r\n   }\r\n   \r\n    \r\n   function getSingleAuthDetails(address _add) public view returns (authority memory)\r\n   {\r\n       return AuthoritiesNames[_add];\r\n   }\r\n\r\n   function getAllListedAuthAddress() public view returns (address [] memory)\r\n   {\r\n       return listedAuthorities;\r\n   }\r\n   \r\n \r\n\r\n    function destroySmartContract(address payable _to) public onlyowner {\r\n    \r\n    selfdestruct(_to);\r\n    }\r\n \r\n}",
  "sourcePath": "C:/Users/ASUS/Desktop/paaradarshak-chainrunner/contracts/paardarshak.sol",
  "compiler": {
    "name": "solc",
    "version": "0.5.12+commit.7709ece9.Emscripten.clang"
  },
  "schemaVersion": "3.0.20",
  "updatedAt": "2020-06-24T22:10:57.346Z",
  "networkType": "ethereum",
  "devdoc": {
    "author": "Abhishek Vispute",
    "methods": {},
    "title": "paardarshak"
  },
  "userdoc": {
    "methods": {}
  }
}